{
  "contractName": "actionsContract",
  "abi": [
    {
      "constant": true,
      "inputs": [],
      "name": "owner",
      "outputs": [
        {
          "name": "",
          "type": "address"
        }
      ],
      "payable": false,
      "stateMutability": "view",
      "type": "function"
    },
    {
      "constant": true,
      "inputs": [],
      "name": "logicAdr",
      "outputs": [
        {
          "name": "",
          "type": "address"
        }
      ],
      "payable": false,
      "stateMutability": "view",
      "type": "function"
    },
    {
      "constant": false,
      "inputs": [
        {
          "name": "newOwner",
          "type": "address"
        }
      ],
      "name": "transferOwnership",
      "outputs": [],
      "payable": false,
      "stateMutability": "nonpayable",
      "type": "function"
    },
    {
      "inputs": [
        {
          "name": "adr",
          "type": "address"
        }
      ],
      "payable": false,
      "stateMutability": "nonpayable",
      "type": "constructor"
    },
    {
      "anonymous": false,
      "inputs": [
        {
          "indexed": true,
          "name": "previousOwner",
          "type": "address"
        },
        {
          "indexed": true,
          "name": "newOwner",
          "type": "address"
        }
      ],
      "name": "OwnershipTransferred",
      "type": "event"
    },
    {
      "constant": false,
      "inputs": [
        {
          "name": "adr",
          "type": "address"
        }
      ],
      "name": "setPlayersContract",
      "outputs": [
        {
          "name": "",
          "type": "bool"
        }
      ],
      "payable": false,
      "stateMutability": "nonpayable",
      "type": "function"
    },
    {
      "constant": false,
      "inputs": [
        {
          "name": "adr",
          "type": "address"
        }
      ],
      "name": "setCountriesContract",
      "outputs": [
        {
          "name": "",
          "type": "bool"
        }
      ],
      "payable": false,
      "stateMutability": "nonpayable",
      "type": "function"
    },
    {
      "constant": false,
      "inputs": [
        {
          "name": "adr",
          "type": "address"
        }
      ],
      "name": "setLogicAddress",
      "outputs": [
        {
          "name": "",
          "type": "bool"
        }
      ],
      "payable": false,
      "stateMutability": "nonpayable",
      "type": "function"
    },
    {
      "constant": false,
      "inputs": [
        {
          "name": "adr",
          "type": "address"
        },
        {
          "name": "toggle",
          "type": "bool"
        }
      ],
      "name": "upgradePower",
      "outputs": [],
      "payable": false,
      "stateMutability": "nonpayable",
      "type": "function"
    },
    {
      "constant": false,
      "inputs": [
        {
          "name": "adr",
          "type": "address"
        },
        {
          "name": "name",
          "type": "string"
        }
      ],
      "name": "changeTeam",
      "outputs": [],
      "payable": false,
      "stateMutability": "nonpayable",
      "type": "function"
    },
    {
      "constant": false,
      "inputs": [
        {
          "name": "adr",
          "type": "address"
        },
        {
          "name": "name",
          "type": "string"
        }
      ],
      "name": "setNickName",
      "outputs": [],
      "payable": false,
      "stateMutability": "nonpayable",
      "type": "function"
    },
    {
      "constant": false,
      "inputs": [
        {
          "name": "adr",
          "type": "address"
        },
        {
          "name": "quantity",
          "type": "uint256"
        },
        {
          "name": "name",
          "type": "string"
        }
      ],
      "name": "addArmyInState",
      "outputs": [],
      "payable": false,
      "stateMutability": "nonpayable",
      "type": "function"
    },
    {
      "constant": false,
      "inputs": [
        {
          "name": "adr",
          "type": "address"
        },
        {
          "name": "quantity",
          "type": "uint256"
        },
        {
          "name": "name",
          "type": "string"
        }
      ],
      "name": "subArmyFromState",
      "outputs": [],
      "payable": false,
      "stateMutability": "nonpayable",
      "type": "function"
    }
  ],
  "bytecode": "0x608060405234801561001057600080fd5b50604051602080611cc083398101806040528101908080519060200190929190505050336000806101000a81548173ffffffffffffffffffffffffffffffffffffffff021916908373ffffffffffffffffffffffffffffffffffffffff1602179055506000600160006101000a81548173ffffffffffffffffffffffffffffffffffffffff021916908373ffffffffffffffffffffffffffffffffffffffff160217905550806000806101000a81548173ffffffffffffffffffffffffffffffffffffffff021916908373ffffffffffffffffffffffffffffffffffffffff1602179055506000600260006101000a81548173ffffffffffffffffffffffffffffffffffffffff021916908373ffffffffffffffffffffffffffffffffffffffff1602179055506000600360006101000a81548173ffffffffffffffffffffffffffffffffffffffff021916908373ffffffffffffffffffffffffffffffffffffffff16021790555050611b37806101896000396000f3006080604052600436106100af576000357c0100000000000000000000000000000000000000000000000000000000900463ffffffff168063049b002a146100b457806310aa52761461010357806313587a9e1461015e578063157c983b146101c3578063829bd3ad146102285780638da5cb5b14610283578063ccaa07da146102da578063ebd4aab214610331578063f2fde38b1461038c578063f81a3bc7146103cf578063fdcfc3ef1461042a575b600080fd5b3480156100c057600080fd5b50610101600480360381019080803573ffffffffffffffffffffffffffffffffffffffff169060200190929190803515159060200190929190505050610485565b005b34801561010f57600080fd5b50610144600480360381019080803573ffffffffffffffffffffffffffffffffffffffff1690602001909291905050506105c6565b604051808215151515815260200191505060405180910390f35b34801561016a57600080fd5b506101c1600480360381019080803573ffffffffffffffffffffffffffffffffffffffff1690602001909291908035906020019092919080359060200190820180359060200191909192939192939050505061066d565b005b3480156101cf57600080fd5b50610226600480360381019080803573ffffffffffffffffffffffffffffffffffffffff16906020019092919080359060200190929190803590602001908201803590602001919091929391929390505050610b9c565b005b34801561023457600080fd5b50610269600480360381019080803573ffffffffffffffffffffffffffffffffffffffff1690602001909291905050506111d4565b604051808215151515815260200191505060405180910390f35b34801561028f57600080fd5b5061029861127b565b604051808273ffffffffffffffffffffffffffffffffffffffff1673ffffffffffffffffffffffffffffffffffffffff16815260200191505060405180910390f35b3480156102e657600080fd5b506102ef6112a0565b604051808273ffffffffffffffffffffffffffffffffffffffff1673ffffffffffffffffffffffffffffffffffffffff16815260200191505060405180910390f35b34801561033d57600080fd5b5061038a600480360381019080803573ffffffffffffffffffffffffffffffffffffffff1690602001909291908035906020019082018035906020019190919293919293905050506112c6565b005b34801561039857600080fd5b506103cd600480360381019080803573ffffffffffffffffffffffffffffffffffffffff16906020019092919050505061141e565b005b3480156103db57600080fd5b50610428600480360381019080803573ffffffffffffffffffffffffffffffffffffffff169060200190929190803590602001908201803590602001919091929391929390505050611573565b005b34801561043657600080fd5b5061046b600480360381019080803573ffffffffffffffffffffffffffffffffffffffff169060200190929190505050611a64565b604051808215151515815260200191505060405180910390f35b600160009054906101000a900473ffffffffffffffffffffffffffffffffffffffff1673ffffffffffffffffffffffffffffffffffffffff163373ffffffffffffffffffffffffffffffffffffffff161415156104e157600080fd5b600260009054906101000a900473ffffffffffffffffffffffffffffffffffffffff1673ffffffffffffffffffffffffffffffffffffffff1663049b002a83836040518363ffffffff167c0100000000000000000000000000000000000000000000000000000000028152600401808373ffffffffffffffffffffffffffffffffffffffff1673ffffffffffffffffffffffffffffffffffffffff1681526020018215151515815260200192505050600060405180830381600087803b1580156105aa57600080fd5b505af11580156105be573d6000803e3d6000fd5b505050505050565b60003373ffffffffffffffffffffffffffffffffffffffff166000809054906101000a900473ffffffffffffffffffffffffffffffffffffffff1673ffffffffffffffffffffffffffffffffffffffff1614151561062357600080fd5b81600260006101000a81548173ffffffffffffffffffffffffffffffffffffffff021916908373ffffffffffffffffffffffffffffffffffffffff16021790555060019050919050565b6060600160009054906101000a900473ffffffffffffffffffffffffffffffffffffffff1673ffffffffffffffffffffffffffffffffffffffff163373ffffffffffffffffffffffffffffffffffffffff161415156106cb57600080fd5b60011515600260009054906101000a900473ffffffffffffffffffffffffffffffffffffffff1673ffffffffffffffffffffffffffffffffffffffff16630b2d447c876040518263ffffffff167c0100000000000000000000000000000000000000000000000000000000028152600401808273ffffffffffffffffffffffffffffffffffffffff1673ffffffffffffffffffffffffffffffffffffffff168152602001915050602060405180830381600087803b15801561078c57600080fd5b505af11580156107a0573d6000803e3d6000fd5b505050506040513d60208110156107b657600080fd5b810190808051906020019092919050505015151415156107d557600080fd5b600260009054906101000a900473ffffffffffffffffffffffffffffffffffffffff1673ffffffffffffffffffffffffffffffffffffffff1663adaccd74866040518263ffffffff167c0100000000000000000000000000000000000000000000000000000000028152600401808273ffffffffffffffffffffffffffffffffffffffff1673ffffffffffffffffffffffffffffffffffffffff168152602001915050600060405180830381600087803b15801561089257600080fd5b505af11580156108a6573d6000803e3d6000fd5b505050506040513d6000823e3d601f19601f8201168201806040525060208110156108d057600080fd5b8101908080516401000000008111156108e857600080fd5b828101905060208101848111156108fe57600080fd5b815185600182028301116401000000008211171561091b57600080fd5b50509291905050509050600360009054906101000a900473ffffffffffffffffffffffffffffffffffffffff1673ffffffffffffffffffffffffffffffffffffffff1663752968c98686868660008760006040518863ffffffff167c0100000000000000000000000000000000000000000000000000000000028152600401808873ffffffffffffffffffffffffffffffffffffffff1673ffffffffffffffffffffffffffffffffffffffff1681526020018781526020018060200185151515158152602001806020018415151515815260200183810383528888828181526020019250808284378201915050838103825285818151815260200191508051906020019080838360005b83811015610a40578082015181840152602081019050610a25565b50505050905090810190601f168015610a6d5780820380516001836020036101000a031916815260200191505b509950505050505050505050600060405180830381600087803b158015610a9357600080fd5b505af1158015610aa7573d6000803e3d6000fd5b50505050600260009054906101000a900473ffffffffffffffffffffffffffffffffffffffff1673ffffffffffffffffffffffffffffffffffffffff166385c5ce4d868660006040518463ffffffff167c0100000000000000000000000000000000000000000000000000000000028152600401808473ffffffffffffffffffffffffffffffffffffffff1673ffffffffffffffffffffffffffffffffffffffff168152602001838152602001821515151581526020019350505050600060405180830381600087803b158015610b7d57600080fd5b505af1158015610b91573d6000803e3d6000fd5b505050505050505050565b60006060600160009054906101000a900473ffffffffffffffffffffffffffffffffffffffff1673ffffffffffffffffffffffffffffffffffffffff163373ffffffffffffffffffffffffffffffffffffffff16141515610bfc57600080fd5b600260009054906101000a900473ffffffffffffffffffffffffffffffffffffffff1673ffffffffffffffffffffffffffffffffffffffff166353d7da60876040518263ffffffff167c0100000000000000000000000000000000000000000000000000000000028152600401808273ffffffffffffffffffffffffffffffffffffffff1673ffffffffffffffffffffffffffffffffffffffff168152602001915050602060405180830381600087803b158015610cb957600080fd5b505af1158015610ccd573d6000803e3d6000fd5b505050506040513d6020811015610ce357600080fd5b81019080805190602001909291905050509150600260009054906101000a900473ffffffffffffffffffffffffffffffffffffffff1673ffffffffffffffffffffffffffffffffffffffff1663adaccd74876040518263ffffffff167c0100000000000000000000000000000000000000000000000000000000028152600401808273ffffffffffffffffffffffffffffffffffffffff1673ffffffffffffffffffffffffffffffffffffffff168152602001915050600060405180830381600087803b158015610db357600080fd5b505af1158015610dc7573d6000803e3d6000fd5b505050506040513d6000823e3d601f19601f820116820180604052506020811015610df157600080fd5b810190808051640100000000811115610e0957600080fd5b82810190506020810184811115610e1f57600080fd5b8151856001820283011164010000000082111715610e3c57600080fd5b5050929190505050905060011515600260009054906101000a900473ffffffffffffffffffffffffffffffffffffffff1673ffffffffffffffffffffffffffffffffffffffff16630b2d447c886040518263ffffffff167c0100000000000000000000000000000000000000000000000000000000028152600401808273ffffffffffffffffffffffffffffffffffffffff1673ffffffffffffffffffffffffffffffffffffffff168152602001915050602060405180830381600087803b158015610f0757600080fd5b505af1158015610f1b573d6000803e3d6000fd5b505050506040513d6020811015610f3157600080fd5b81019080805190602001909291905050501515148015610f515750818511155b1515610f5c57600080fd5b600360009054906101000a900473ffffffffffffffffffffffffffffffffffffffff1673ffffffffffffffffffffffffffffffffffffffff1663752968c98787878760018760006040518863ffffffff167c0100000000000000000000000000000000000000000000000000000000028152600401808873ffffffffffffffffffffffffffffffffffffffff1673ffffffffffffffffffffffffffffffffffffffff1681526020018781526020018060200185151515158152602001806020018415151515815260200183810383528888828181526020019250808284378201915050838103825285818151815260200191508051906020019080838360005b8381101561107757808201518184015260208101905061105c565b50505050905090810190601f1680156110a45780820380516001836020036101000a031916815260200191505b509950505050505050505050600060405180830381600087803b1580156110ca57600080fd5b505af11580156110de573d6000803e3d6000fd5b50505050600260009054906101000a900473ffffffffffffffffffffffffffffffffffffffff1673ffffffffffffffffffffffffffffffffffffffff166385c5ce4d878760016040518463ffffffff167c0100000000000000000000000000000000000000000000000000000000028152600401808473ffffffffffffffffffffffffffffffffffffffff1673ffffffffffffffffffffffffffffffffffffffff168152602001838152602001821515151581526020019350505050600060405180830381600087803b1580156111b457600080fd5b505af11580156111c8573d6000803e3d6000fd5b50505050505050505050565b60003373ffffffffffffffffffffffffffffffffffffffff166000809054906101000a900473ffffffffffffffffffffffffffffffffffffffff1673ffffffffffffffffffffffffffffffffffffffff1614151561123157600080fd5b81600360006101000a81548173ffffffffffffffffffffffffffffffffffffffff021916908373ffffffffffffffffffffffffffffffffffffffff16021790555060019050919050565b6000809054906101000a900473ffffffffffffffffffffffffffffffffffffffff1681565b600160009054906101000a900473ffffffffffffffffffffffffffffffffffffffff1681565b600160009054906101000a900473ffffffffffffffffffffffffffffffffffffffff1673ffffffffffffffffffffffffffffffffffffffff163373ffffffffffffffffffffffffffffffffffffffff1614151561132257600080fd5b600260009054906101000a900473ffffffffffffffffffffffffffffffffffffffff1673ffffffffffffffffffffffffffffffffffffffff16636e2cf7d38484846040518463ffffffff167c0100000000000000000000000000000000000000000000000000000000028152600401808473ffffffffffffffffffffffffffffffffffffffff1673ffffffffffffffffffffffffffffffffffffffff1681526020018060200182810382528484828181526020019250808284378201915050945050505050600060405180830381600087803b15801561140157600080fd5b505af1158015611415573d6000803e3d6000fd5b50505050505050565b3373ffffffffffffffffffffffffffffffffffffffff166000809054906101000a900473ffffffffffffffffffffffffffffffffffffffff1673ffffffffffffffffffffffffffffffffffffffff1614151561147957600080fd5b600073ffffffffffffffffffffffffffffffffffffffff168173ffffffffffffffffffffffffffffffffffffffff16141515156114b557600080fd5b8073ffffffffffffffffffffffffffffffffffffffff166000809054906101000a900473ffffffffffffffffffffffffffffffffffffffff1673ffffffffffffffffffffffffffffffffffffffff167f8be0079c531659141344cd1fd0a4f28419497f9722a3daafe3b4186f6b6457e060405160405180910390a3806000806101000a81548173ffffffffffffffffffffffffffffffffffffffff021916908373ffffffffffffffffffffffffffffffffffffffff16021790555050565b600160009054906101000a900473ffffffffffffffffffffffffffffffffffffffff1673ffffffffffffffffffffffffffffffffffffffff163373ffffffffffffffffffffffffffffffffffffffff161415156115cf57600080fd5b60405180807f42544300000000000000000000000000000000000000000000000000000000008152506003019050604051809103902060001916828260405180838380828437820191505092505050604051809103902060001916148061168e575060405180807f45544800000000000000000000000000000000000000000000000000000000008152506003019050604051809103902060001916828260405180838380828437820191505092505050604051809103902060001916145b806116f1575060405180807f58525000000000000000000000000000000000000000000000000000000000008152506003019050604051809103902060001916828260405180838380828437820191505092505050604051809103902060001916145b80611754575060405180807f42434800000000000000000000000000000000000000000000000000000000008152506003019050604051809103902060001916828260405180838380828437820191505092505050604051809103902060001916145b151561175f57600080fd5b60011515600260009054906101000a900473ffffffffffffffffffffffffffffffffffffffff1673ffffffffffffffffffffffffffffffffffffffff16630b2d447c856040518263ffffffff167c0100000000000000000000000000000000000000000000000000000000028152600401808273ffffffffffffffffffffffffffffffffffffffff1673ffffffffffffffffffffffffffffffffffffffff168152602001915050602060405180830381600087803b15801561182057600080fd5b505af1158015611834573d6000803e3d6000fd5b505050506040513d602081101561184a57600080fd5b8101908080519060200190929190505050151514151561196857600260009054906101000a900473ffffffffffffffffffffffffffffffffffffffff1673ffffffffffffffffffffffffffffffffffffffff16631228b9dd846040518263ffffffff167c0100000000000000000000000000000000000000000000000000000000028152600401808273ffffffffffffffffffffffffffffffffffffffff1673ffffffffffffffffffffffffffffffffffffffff168152602001915050602060405180830381600087803b15801561192157600080fd5b505af1158015611935573d6000803e3d6000fd5b505050506040513d602081101561194b57600080fd5b8101908080519060200190929190505050151561196757600080fd5b5b600260009054906101000a900473ffffffffffffffffffffffffffffffffffffffff1673ffffffffffffffffffffffffffffffffffffffff1663f81a3bc78484846040518463ffffffff167c0100000000000000000000000000000000000000000000000000000000028152600401808473ffffffffffffffffffffffffffffffffffffffff1673ffffffffffffffffffffffffffffffffffffffff1681526020018060200182810382528484828181526020019250808284378201915050945050505050600060405180830381600087803b158015611a4757600080fd5b505af1158015611a5b573d6000803e3d6000fd5b50505050505050565b60003373ffffffffffffffffffffffffffffffffffffffff166000809054906101000a900473ffffffffffffffffffffffffffffffffffffffff1673ffffffffffffffffffffffffffffffffffffffff16141515611ac157600080fd5b81600160006101000a81548173ffffffffffffffffffffffffffffffffffffffff021916908373ffffffffffffffffffffffffffffffffffffffff160217905550600190509190505600a165627a7a72305820d7b7154c591ec1eae86b429a04c807a8ec32217e9adee5ea7e90b66ab2dc9f380029",
  "source": "pragma solidity ^0.4.23;\n//pragma experimental ABIEncoderV2;\n\nimport \"./Ownable.sol\";\nimport \"./SafeMath.sol\";\nimport \"./playersContract.sol\";\nimport \"./countriesContract.sol\";\n\ncontract actionsContract is Ownable {\n\n    using SafeMath for uint;\n\n    address public logicAdr;\n\n    playersContract players;\n    countriesContract countries;\n\n    // BE SURE TO PUT THE RIGHT OWNER BEFORE PRODUCTION\n    modifier onlyOwner {\n        require(owner == msg.sender);\n        _;\n    }\n\n    modifier onlyLogic {\n        require(msg.sender == logicAdr);\n        _;\n    }\n\n    constructor(address adr) public {\n        logicAdr = 0x0;\n        owner = adr;//msg.sender;//0xBB9CAE0071054774d47B3299EFb1E6e3ef1153d1;\n        players = playersContract(0x0);\n        countries = countriesContract(0x0);\n    }\n\n//-------------------Init Functions ----------------------------------------------------//\n\n    function setPlayersContract(address adr) onlyOwner external returns (bool) {\n        players = playersContract(adr);\n        return true;\n    }\n\n    function setCountriesContract(address adr) onlyOwner external returns (bool) {\n        countries = countriesContract(adr);\n        return true;\n    }\n\n    function setLogicAddress(address adr) onlyOwner external returns (bool) {\n        logicAdr = adr;\n        return true;\n    }\n\n\n//--------------------State changing functions------------------------------------------//\n\n    //PLAYER ACTIONS\n    //toggle==0 attackDMG, toggle==1 defense\n    function upgradePower(address adr, bool toggle) onlyLogic external {\n        players.upgradePower(adr, toggle);\n    }\n\n    function changeTeam(address adr, string name) onlyLogic external {\n        require(keccak256(name) == keccak256(\"BTC\") || keccak256(name) == keccak256(\"ETH\") || keccak256(name) == keccak256(\"XRP\") || keccak256(name) == keccak256(\"BCH\") );\n        if (players.getExistence(adr) != true) {\n            require(players.newPlayer(adr)); \n        }\n        players.changeTeam(adr,name);\n    }\n\n    function setNickName(address adr, string name) onlyLogic external {\n        players.changeNickname(adr, name);\n    }\n\n    //COUNTRY ACTIONS\n    function addArmyInState(address adr, uint quantity, string name) onlyLogic external{\n        uint max = players.getArmy(adr);\n        string memory nick = players.getNickname(adr);\n        require(players.getExistence(adr) == true && quantity <= max);\n        countries.changeArmy(adr,quantity,name,true, nick, false);\n        players.changeArmy(adr, quantity, true);\n    }\n\n    function subArmyFromState(address adr, uint quantity, string name) onlyLogic external {\n        require(players.getExistence(adr) == true);\n        string memory nick = players.getNickname(adr);\n        countries.changeArmy(adr,quantity,name,false, nick, false);\n        players.changeArmy(adr, quantity, false);\n    }\n}",
  "sourcePath": "C:\\Users\\mauri\\Desktop\\Crysk\\contracts\\actionsContract.sol",
  "compiler": {
    "name": "solc",
    "version": "0.4.23+commit.124ca40d.Emscripten.clang"
  },
  "schemaVersion": "2.0.0",
  "updatedAt": "2018-09-21T15:36:34.889Z"
}