{
  "contractName": "countriesContract",
  "abi": [
    {
      "constant": true,
      "inputs": [],
      "name": "height",
      "outputs": [
        {
          "name": "",
          "type": "uint256"
        }
      ],
      "payable": false,
      "stateMutability": "view",
      "type": "function"
    },
    {
      "constant": true,
      "inputs": [],
      "name": "owner",
      "outputs": [
        {
          "name": "",
          "type": "address"
        }
      ],
      "payable": false,
      "stateMutability": "view",
      "type": "function"
    },
    {
      "constant": true,
      "inputs": [],
      "name": "basePrice",
      "outputs": [
        {
          "name": "",
          "type": "uint256"
        }
      ],
      "payable": false,
      "stateMutability": "view",
      "type": "function"
    },
    {
      "constant": true,
      "inputs": [],
      "name": "objectsCreated",
      "outputs": [
        {
          "name": "",
          "type": "uint256"
        }
      ],
      "payable": false,
      "stateMutability": "view",
      "type": "function"
    },
    {
      "constant": true,
      "inputs": [
        {
          "name": "",
          "type": "uint256"
        }
      ],
      "name": "objects",
      "outputs": [
        {
          "name": "name",
          "type": "string"
        },
        {
          "name": "price",
          "type": "uint256"
        },
        {
          "name": "propertyOf",
          "type": "address"
        },
        {
          "name": "army",
          "type": "uint256"
        },
        {
          "name": "lifepoints",
          "type": "uint256"
        },
        {
          "name": "lock",
          "type": "bool"
        },
        {
          "name": "timer",
          "type": "uint256"
        }
      ],
      "payable": false,
      "stateMutability": "view",
      "type": "function"
    },
    {
      "constant": false,
      "inputs": [
        {
          "name": "newOwner",
          "type": "address"
        }
      ],
      "name": "transferOwnership",
      "outputs": [],
      "payable": false,
      "stateMutability": "nonpayable",
      "type": "function"
    },
    {
      "inputs": [
        {
          "name": "adr",
          "type": "address"
        }
      ],
      "payable": false,
      "stateMutability": "nonpayable",
      "type": "constructor"
    },
    {
      "anonymous": false,
      "inputs": [
        {
          "indexed": false,
          "name": "amount",
          "type": "uint256"
        },
        {
          "indexed": false,
          "name": "name",
          "type": "string"
        },
        {
          "indexed": false,
          "name": "adr",
          "type": "address"
        },
        {
          "indexed": false,
          "name": "direction",
          "type": "bool"
        },
        {
          "indexed": false,
          "name": "nick",
          "type": "string"
        }
      ],
      "name": "armyAdded",
      "type": "event"
    },
    {
      "anonymous": false,
      "inputs": [
        {
          "indexed": false,
          "name": "adr",
          "type": "address"
        },
        {
          "indexed": false,
          "name": "num",
          "type": "uint256"
        },
        {
          "indexed": false,
          "name": "name",
          "type": "string"
        },
        {
          "indexed": false,
          "name": "team",
          "type": "string"
        },
        {
          "indexed": false,
          "name": "victim",
          "type": "address"
        },
        {
          "indexed": false,
          "name": "nick",
          "type": "string"
        },
        {
          "indexed": false,
          "name": "subs",
          "type": "uint256"
        }
      ],
      "name": "attackInflicted",
      "type": "event"
    },
    {
      "anonymous": false,
      "inputs": [
        {
          "indexed": false,
          "name": "adr",
          "type": "address"
        },
        {
          "indexed": false,
          "name": "name",
          "type": "string"
        },
        {
          "indexed": false,
          "name": "index",
          "type": "uint256"
        },
        {
          "indexed": false,
          "name": "victim",
          "type": "address"
        },
        {
          "indexed": false,
          "name": "team",
          "type": "string"
        },
        {
          "indexed": false,
          "name": "nick",
          "type": "string"
        }
      ],
      "name": "bombInflicted",
      "type": "event"
    },
    {
      "anonymous": false,
      "inputs": [
        {
          "indexed": true,
          "name": "previousOwner",
          "type": "address"
        },
        {
          "indexed": true,
          "name": "newOwner",
          "type": "address"
        }
      ],
      "name": "OwnershipTransferred",
      "type": "event"
    },
    {
      "constant": false,
      "inputs": [
        {
          "name": "logicAdr",
          "type": "address"
        },
        {
          "name": "actionsAdr",
          "type": "address"
        },
        {
          "name": "marketPlaceAdr",
          "type": "address"
        },
        {
          "name": "attacksAdr",
          "type": "address"
        }
      ],
      "name": "setValidAddress",
      "outputs": [
        {
          "name": "",
          "type": "bool"
        }
      ],
      "payable": false,
      "stateMutability": "nonpayable",
      "type": "function"
    },
    {
      "constant": true,
      "inputs": [
        {
          "name": "name",
          "type": "string"
        }
      ],
      "name": "getExistence",
      "outputs": [
        {
          "name": "",
          "type": "bool"
        }
      ],
      "payable": false,
      "stateMutability": "view",
      "type": "function"
    },
    {
      "constant": true,
      "inputs": [
        {
          "name": "name",
          "type": "string"
        }
      ],
      "name": "getPrice",
      "outputs": [
        {
          "name": "",
          "type": "uint256"
        }
      ],
      "payable": false,
      "stateMutability": "view",
      "type": "function"
    },
    {
      "constant": true,
      "inputs": [
        {
          "name": "name",
          "type": "string"
        }
      ],
      "name": "getOwner",
      "outputs": [
        {
          "name": "",
          "type": "address"
        }
      ],
      "payable": false,
      "stateMutability": "view",
      "type": "function"
    },
    {
      "constant": true,
      "inputs": [
        {
          "name": "name",
          "type": "string"
        }
      ],
      "name": "getBlockLeft",
      "outputs": [
        {
          "name": "",
          "type": "uint256"
        }
      ],
      "payable": false,
      "stateMutability": "view",
      "type": "function"
    },
    {
      "constant": true,
      "inputs": [
        {
          "name": "name",
          "type": "string"
        }
      ],
      "name": "getArmy",
      "outputs": [
        {
          "name": "",
          "type": "uint256"
        }
      ],
      "payable": false,
      "stateMutability": "view",
      "type": "function"
    },
    {
      "constant": true,
      "inputs": [
        {
          "name": "name",
          "type": "string"
        }
      ],
      "name": "getLifePoints",
      "outputs": [
        {
          "name": "",
          "type": "uint256"
        }
      ],
      "payable": false,
      "stateMutability": "view",
      "type": "function"
    },
    {
      "constant": false,
      "inputs": [
        {
          "name": "adr",
          "type": "address"
        },
        {
          "name": "name",
          "type": "string"
        }
      ],
      "name": "newObject",
      "outputs": [
        {
          "name": "",
          "type": "bool"
        }
      ],
      "payable": false,
      "stateMutability": "nonpayable",
      "type": "function"
    },
    {
      "constant": false,
      "inputs": [
        {
          "name": "name",
          "type": "string"
        }
      ],
      "name": "setTimer",
      "outputs": [],
      "payable": false,
      "stateMutability": "nonpayable",
      "type": "function"
    },
    {
      "constant": false,
      "inputs": [
        {
          "name": "name",
          "type": "string"
        },
        {
          "name": "adr",
          "type": "address"
        },
        {
          "name": "army",
          "type": "uint256"
        },
        {
          "name": "lifepoints",
          "type": "uint256"
        }
      ],
      "name": "changeOwnership",
      "outputs": [
        {
          "name": "",
          "type": "bool"
        }
      ],
      "payable": false,
      "stateMutability": "nonpayable",
      "type": "function"
    },
    {
      "constant": false,
      "inputs": [
        {
          "name": "name",
          "type": "string"
        },
        {
          "name": "adr",
          "type": "address"
        },
        {
          "name": "quantity",
          "type": "uint256"
        }
      ],
      "name": "addLifePoints",
      "outputs": [
        {
          "name": "",
          "type": "bool"
        }
      ],
      "payable": false,
      "stateMutability": "nonpayable",
      "type": "function"
    },
    {
      "constant": false,
      "inputs": [
        {
          "name": "adr",
          "type": "address"
        },
        {
          "name": "quantity",
          "type": "uint256"
        },
        {
          "name": "name",
          "type": "string"
        },
        {
          "name": "toggle",
          "type": "bool"
        },
        {
          "name": "nick",
          "type": "string"
        },
        {
          "name": "hide",
          "type": "bool"
        }
      ],
      "name": "changeArmy",
      "outputs": [],
      "payable": false,
      "stateMutability": "nonpayable",
      "type": "function"
    },
    {
      "constant": false,
      "inputs": [
        {
          "name": "name",
          "type": "string"
        },
        {
          "name": "value",
          "type": "uint256"
        }
      ],
      "name": "buyObject",
      "outputs": [],
      "payable": false,
      "stateMutability": "nonpayable",
      "type": "function"
    },
    {
      "constant": false,
      "inputs": [
        {
          "name": "adr",
          "type": "address"
        },
        {
          "name": "team",
          "type": "string"
        },
        {
          "name": "damage",
          "type": "uint256"
        },
        {
          "name": "name",
          "type": "string"
        },
        {
          "name": "subs",
          "type": "uint256"
        },
        {
          "name": "nick",
          "type": "string"
        }
      ],
      "name": "attack",
      "outputs": [
        {
          "name": "",
          "type": "bool"
        }
      ],
      "payable": false,
      "stateMutability": "nonpayable",
      "type": "function"
    },
    {
      "constant": false,
      "inputs": [
        {
          "name": "adr",
          "type": "address"
        },
        {
          "name": "index",
          "type": "uint256"
        },
        {
          "name": "name",
          "type": "string"
        },
        {
          "name": "team",
          "type": "string"
        },
        {
          "name": "nick",
          "type": "string"
        }
      ],
      "name": "applyBombCard",
      "outputs": [
        {
          "name": "",
          "type": "bool"
        }
      ],
      "payable": false,
      "stateMutability": "nonpayable",
      "type": "function"
    }
  ],
  "bytecode": "0x60806040523480156200001157600080fd5b5060405160208062003925833981018060405281019080805190602001909291905050506200003f62000269565b336000806101000a81548173ffffffffffffffffffffffffffffffffffffffff021916908373ffffffffffffffffffffffffffffffffffffffff16021790555066470de4df8200006007819055506000600260006101000a81548173ffffffffffffffffffffffffffffffffffffffff021916908373ffffffffffffffffffffffffffffffffffffffff160217905550816000806101000a81548173ffffffffffffffffffffffffffffffffffffffff021916908373ffffffffffffffffffffffffffffffffffffffff16021790555060e0604051908101604052806020604051908101604052806000815250815260200160008152602001600073ffffffffffffffffffffffffffffffffffffffff168152602001600081526020016000815260200160001515815260200160008152509050600181908060018154018082558091505090600182039060005260206000209060070201600090919290919091506000820151816000019080519060200190620001bf929190620002bf565b506020820151816001015560408201518160020160006101000a81548173ffffffffffffffffffffffffffffffffffffffff021916908373ffffffffffffffffffffffffffffffffffffffff160217905550606082015181600301556080820151816004015560a08201518160050160006101000a81548160ff02191690831515021790555060c0820151816006015550505060006006819055504260088190555050506200036e565b60e0604051908101604052806060815260200160008152602001600073ffffffffffffffffffffffffffffffffffffffff1681526020016000815260200160008152602001600015158152602001600081525090565b828054600181600116156101000203166002900490600052602060002090601f016020900481019282601f106200030257805160ff191683800117855562000333565b8280016001018555821562000333579182015b828111156200033257825182559160200191906001019062000315565b5b50905062000342919062000346565b5090565b6200036b91905b80821115620003675760008160009055506001016200034d565b5090565b90565b6135a7806200037e6000396000f30060806040526004361061011d576000357c0100000000000000000000000000000000000000000000000000000000900463ffffffff1680630ef26743146101225780634305fee91461014d5780634aaf4a1214610202578063524f3889146102ab5780635f84bccd146102fa578063752968c9146103a5578063852c1f631461043a5780638da5cb5b14610489578063ba787ab1146104e0578063c1ecfd7714610525578063c33c2517146105dc578063c364e6f11461064f578063c7876ea41461070a578063d8c8308314610735578063db1bdaec14610760578063df80db4d1461080d578063e71fa1051461085c578063e9ef48cc146108af578063ed1758501461092c578063f2fde38b14610a2c578063f6b47e7014610a6f575b600080fd5b34801561012e57600080fd5b50610137610aaa565b6040518082815260200191505060405180910390f35b34801561015957600080fd5b506101e8600480360381019080803590602001908201803590602001908080601f0160208091040260200160405190810160405280939291908181526020018383808284378201915050505050509192919290803573ffffffffffffffffffffffffffffffffffffffff1690602001909291908035906020019092919080359060200190929190505050610ab0565b604051808215151515815260200191505060405180910390f35b34801561020e57600080fd5b50610269600480360381019080803590602001908201803590602001908080601f0160208091040260200160405190810160405280939291908181526020018383808284378201915050505050509192919290505050610e8f565b604051808273ffffffffffffffffffffffffffffffffffffffff1673ffffffffffffffffffffffffffffffffffffffff16815260200191505060405180910390f35b3480156102b757600080fd5b506102e4600480360381019080803590602001908201803590602001919091929391929390505050610f27565b6040518082815260200191505060405180910390f35b34801561030657600080fd5b5061038b600480360381019080803590602001908201803590602001908080601f0160208091040260200160405190810160405280939291908181526020018383808284378201915050505050509192919290803573ffffffffffffffffffffffffffffffffffffffff16906020019092919080359060200190929190505050610fa4565b604051808215151515815260200191505060405180910390f35b3480156103b157600080fd5b50610438600480360381019080803573ffffffffffffffffffffffffffffffffffffffff169060200190929190803590602001909291908035906020019082018035906020019190919293919293908035151590602001909291908035906020019082018035906020019190919293919293908035151590602001909291905050506112d0565b005b34801561044657600080fd5b50610473600480360381019080803590602001908201803590602001919091929391929390505050611862565b6040518082815260200191505060405180910390f35b34801561049557600080fd5b5061049e611895565b604051808273ffffffffffffffffffffffffffffffffffffffff1673ffffffffffffffffffffffffffffffffffffffff16815260200191505060405180910390f35b3480156104ec57600080fd5b50610523600480360381019080803590602001908201803590602001919091929391929390803590602001909291905050506118ba565b005b34801561053157600080fd5b506105c2600480360381019080803573ffffffffffffffffffffffffffffffffffffffff1690602001909291908035906020019082018035906020019190919293919293908035906020019092919080359060200190820180359060200191909192939192939080359060200190929190803590602001908201803590602001919091929391929390505050611b3c565b604051808215151515815260200191505060405180910390f35b3480156105e857600080fd5b50610635600480360381019080803573ffffffffffffffffffffffffffffffffffffffff169060200190929190803590602001908201803590602001919091929391929390505050612017565b604051808215151515815260200191505060405180910390f35b34801561065b57600080fd5b506106f0600480360381019080803573ffffffffffffffffffffffffffffffffffffffff169060200190929190803573ffffffffffffffffffffffffffffffffffffffff169060200190929190803573ffffffffffffffffffffffffffffffffffffffff169060200190929190803573ffffffffffffffffffffffffffffffffffffffff169060200190929190505050612514565b604051808215151515815260200191505060405180910390f35b34801561071657600080fd5b5061071f61267d565b6040518082815260200191505060405180910390f35b34801561074157600080fd5b5061074a612683565b6040518082815260200191505060405180910390f35b34801561076c57600080fd5b506107f3600480360381019080803573ffffffffffffffffffffffffffffffffffffffff16906020019092919080359060200190929190803590602001908201803590602001919091929391929390803590602001908201803590602001919091929391929390803590602001908201803590602001919091929391929390505050612689565b604051808215151515815260200191505060405180910390f35b34801561081957600080fd5b50610846600480360381019080803590602001908201803590602001919091929391929390505050612e39565b6040518082815260200191505060405180910390f35b34801561086857600080fd5b50610895600480360381019080803590602001908201803590602001919091929391929390505050612e6c565b604051808215151515815260200191505060405180910390f35b3480156108bb57600080fd5b50610916600480360381019080803590602001908201803590602001908080601f0160208091040260200160405190810160405280939291908181526020018383808284378201915050505050509192919290505050612ec1565b6040518082815260200191505060405180910390f35b34801561093857600080fd5b5061095760048036038101908080359060200190929190505050612f76565b60405180806020018881526020018773ffffffffffffffffffffffffffffffffffffffff1673ffffffffffffffffffffffffffffffffffffffff16815260200186815260200185815260200184151515158152602001838152602001828103825289818151815260200191508051906020019080838360005b838110156109eb5780820151818401526020810190506109d0565b50505050905090810190601f168015610a185780820380516001836020036101000a031916815260200191505b509850505050505050505060405180910390f35b348015610a3857600080fd5b50610a6d600480360381019080803573ffffffffffffffffffffffffffffffffffffffff16906020019092919050505061308c565b005b348015610a7b57600080fd5b50610aa86004803603810190808035906020019082018035906020019190919293919293905050506131e1565b005b60085481565b6000600260009054906101000a900473ffffffffffffffffffffffffffffffffffffffff1673ffffffffffffffffffffffffffffffffffffffff163373ffffffffffffffffffffffffffffffffffffffff161480610b5b5750600360009054906101000a900473ffffffffffffffffffffffffffffffffffffffff1673ffffffffffffffffffffffffffffffffffffffff163373ffffffffffffffffffffffffffffffffffffffff16145b80610bb35750600460009054906101000a900473ffffffffffffffffffffffffffffffffffffffff1673ffffffffffffffffffffffffffffffffffffffff163373ffffffffffffffffffffffffffffffffffffffff16145b80610c0b5750600560009054906101000a900473ffffffffffffffffffffffffffffffffffffffff1673ffffffffffffffffffffffffffffffffffffffff163373ffffffffffffffffffffffffffffffffffffffff16145b1515610c1657600080fd5b8373ffffffffffffffffffffffffffffffffffffffff166009866040518082805190602001908083835b602083101515610c655780518252602082019150602081019050602083039250610c40565b6001836020036101000a038019825116818451168082178552505050505050905001915050908152602001604051809103902060020160009054906101000a900473ffffffffffffffffffffffffffffffffffffffff1673ffffffffffffffffffffffffffffffffffffffff16141515610d8757836009866040518082805190602001908083835b602083101515610d125780518252602082019150602081019050602083039250610ced565b6001836020036101000a038019825116818451168082178552505050505050905001915050908152602001604051809103902060020160006101000a81548173ffffffffffffffffffffffffffffffffffffffff021916908373ffffffffffffffffffffffffffffffffffffffff1602179055505b600083141515610e0557826009866040518082805190602001908083835b602083101515610dca5780518252602082019150602081019050602083039250610da5565b6001836020036101000a0380198251168184511680821785525050505050509050019150509081526020016040518091039020600301819055505b600082141515610e8357816009866040518082805190602001908083835b602083101515610e485780518252602082019150602081019050602083039250610e23565b6001836020036101000a0380198251168184511680821785525050505050509050019150509081526020016040518091039020600401819055505b60019050949350505050565b60006009826040518082805190602001908083835b602083101515610ec95780518252602082019150602081019050602083039250610ea4565b6001836020036101000a038019825116818451168082178552505050505050905001915050908152602001604051809103902060020160009054906101000a900473ffffffffffffffffffffffffffffffffffffffff169050919050565b600060011515600a848460405180838380828437820191505092505050908152602001604051809103902060009054906101000a900460ff1615151415610f985760098383604051808383808284378201915050925050509081526020016040518091039020600101549050610f9e565b60075490505b92915050565b6000600260009054906101000a900473ffffffffffffffffffffffffffffffffffffffff1673ffffffffffffffffffffffffffffffffffffffff163373ffffffffffffffffffffffffffffffffffffffff16148061104f5750600360009054906101000a900473ffffffffffffffffffffffffffffffffffffffff1673ffffffffffffffffffffffffffffffffffffffff163373ffffffffffffffffffffffffffffffffffffffff16145b806110a75750600460009054906101000a900473ffffffffffffffffffffffffffffffffffffffff1673ffffffffffffffffffffffffffffffffffffffff163373ffffffffffffffffffffffffffffffffffffffff16145b806110ff5750600560009054906101000a900473ffffffffffffffffffffffffffffffffffffffff1673ffffffffffffffffffffffffffffffffffffffff163373ffffffffffffffffffffffffffffffffffffffff16145b151561110a57600080fd5b8273ffffffffffffffffffffffffffffffffffffffff166009856040518082805190602001908083835b6020831015156111595780518252602082019150602081019050602083039250611134565b6001836020036101000a038019825116818451168082178552505050505050905001915050908152602001604051809103902060020160009054906101000a900473ffffffffffffffffffffffffffffffffffffffff1673ffffffffffffffffffffffffffffffffffffffff161415156111d257600080fd5b611253826009866040518082805190602001908083835b60208310151561120e57805182526020820191506020810190506020830392506111e9565b6001836020036101000a03801982511681845116808217855250505050505090500191505090815260200160405180910390206004015461337690919063ffffffff16565b6009856040518082805190602001908083835b60208310151561128b5780518252602082019150602081019050602083039250611266565b6001836020036101000a038019825116818451168082178552505050505050905001915050908152602001604051809103902060040181905550600190509392505050565b600260009054906101000a900473ffffffffffffffffffffffffffffffffffffffff1673ffffffffffffffffffffffffffffffffffffffff163373ffffffffffffffffffffffffffffffffffffffff1614806113795750600360009054906101000a900473ffffffffffffffffffffffffffffffffffffffff1673ffffffffffffffffffffffffffffffffffffffff163373ffffffffffffffffffffffffffffffffffffffff16145b806113d15750600460009054906101000a900473ffffffffffffffffffffffffffffffffffffffff1673ffffffffffffffffffffffffffffffffffffffff163373ffffffffffffffffffffffffffffffffffffffff16145b806114295750600560009054906101000a900473ffffffffffffffffffffffffffffffffffffffff1673ffffffffffffffffffffffffffffffffffffffff163373ffffffffffffffffffffffffffffffffffffffff16145b151561143457600080fd5b60011515811515141561147357866009878760405180838380828437820191505092505050908152602001604051809103902060030181905550611858565b60001515841515141561165e576009868660405180838380828437820191505092505050908152602001604051809103902060030154871115801561152b57508773ffffffffffffffffffffffffffffffffffffffff166009878760405180838380828437820191505092505050908152602001604051809103902060020160009054906101000a900473ffffffffffffffffffffffffffffffffffffffff1673ffffffffffffffffffffffffffffffffffffffff16145b151561153657600080fd5b61157187600988886040518083838082843782019150509250505090815260200160405180910390206003015461339290919063ffffffff16565b60098787604051808383808284378201915050925050509081526020016040518091039020600301819055507f2f7008d8d18ea0d75b04a02bdeefca0f3ccbd8fd572930bb02bf5b9494769b398787878b6000888860405180888152602001806020018673ffffffffffffffffffffffffffffffffffffffff1673ffffffffffffffffffffffffffffffffffffffff16815260200185151515158152602001806020018381038352898982818152602001925080828437820191505083810382528585828181526020019250808284378201915050995050505050505050505060405180910390a1611857565b600115158415151415611856578773ffffffffffffffffffffffffffffffffffffffff166009878760405180838380828437820191505092505050908152602001604051809103902060020160009054906101000a900473ffffffffffffffffffffffffffffffffffffffff1673ffffffffffffffffffffffffffffffffffffffff161480156117275750600015156009878760405180838380828437820191505092505050908152602001604051809103902060050160009054906101000a900460ff161515145b151561173257600080fd5b61176d87600988886040518083838082843782019150509250505090815260200160405180910390206003015461337690919063ffffffff16565b60098787604051808383808284378201915050925050509081526020016040518091039020600301819055507f2f7008d8d18ea0d75b04a02bdeefca0f3ccbd8fd572930bb02bf5b9494769b398787878b6001888860405180888152602001806020018673ffffffffffffffffffffffffffffffffffffffff1673ffffffffffffffffffffffffffffffffffffffff16815260200185151515158152602001806020018381038352898982818152602001925080828437820191505083810382528585828181526020019250808284378201915050995050505050505050505060405180910390a15b5b5b5050505050505050565b60006009838360405180838380828437820191505092505050908152602001604051809103902060030154905092915050565b6000809054906101000a900473ffffffffffffffffffffffffffffffffffffffff1681565b600260009054906101000a900473ffffffffffffffffffffffffffffffffffffffff1673ffffffffffffffffffffffffffffffffffffffff163373ffffffffffffffffffffffffffffffffffffffff1614806119635750600360009054906101000a900473ffffffffffffffffffffffffffffffffffffffff1673ffffffffffffffffffffffffffffffffffffffff163373ffffffffffffffffffffffffffffffffffffffff16145b806119bb5750600460009054906101000a900473ffffffffffffffffffffffffffffffffffffffff1673ffffffffffffffffffffffffffffffffffffffff163373ffffffffffffffffffffffffffffffffffffffff16145b80611a135750600560009054906101000a900473ffffffffffffffffffffffffffffffffffffffff1673ffffffffffffffffffffffffffffffffffffffff163373ffffffffffffffffffffffffffffffffffffffff16145b1515611a1e57600080fd5b611a94611a5d600a60098686604051808383808284378201915050925050509081526020016040518091039020600101546133ab90919063ffffffff16565b600985856040518083838082843782019150509250505090815260200160405180910390206001015461337690919063ffffffff16565b8110151515611aa257600080fd5b611ade600260098585604051808383808284378201915050925050509081526020016040518091039020600101546133c190919063ffffffff16565b6009848460405180838380828437820191505092505050908152602001604051809103902060010181905550436009848460405180838380828437820191505092505050908152602001604051809103902060060181905550505050565b6000600260009054906101000a900473ffffffffffffffffffffffffffffffffffffffff1673ffffffffffffffffffffffffffffffffffffffff163373ffffffffffffffffffffffffffffffffffffffff161480611be75750600360009054906101000a900473ffffffffffffffffffffffffffffffffffffffff1673ffffffffffffffffffffffffffffffffffffffff163373ffffffffffffffffffffffffffffffffffffffff16145b80611c3f5750600460009054906101000a900473ffffffffffffffffffffffffffffffffffffffff1673ffffffffffffffffffffffffffffffffffffffff163373ffffffffffffffffffffffffffffffffffffffff16145b80611c975750600560009054906101000a900473ffffffffffffffffffffffffffffffffffffffff1673ffffffffffffffffffffffffffffffffffffffff163373ffffffffffffffffffffffffffffffffffffffff16145b1515611ca257600080fd5b85858080601f01602080910402602001604051908101604052809392919081815260200183838082843782019150505050505060146009826040518082805190602001908083835b602083101515611d0f5780518252602082019150602081019050602083039250611cea565b6001836020036101000a0380198251168184511680821785525050505050509050019150509081526020016040518091039020600601540143111515611d5457600080fd5b876009888860405180838380828437820191505092505050908152602001604051809103902060040154111515611dfb57611dc487878080601f0160208091040260200160405190810160405280939291908181526020018383808284378201915050505050508c876064610ab0565b5043600988886040518083838082843782019150509250505090815260200160405180910390206006018190555060019150612009565b7f2d2f4082a96c0e58b7df66477dfd0ad75bc28a4f4fd863518fff42995ec64c578b8989898e8e611e5d8e8e8080601f016020809104026020016040519081016040528093929190818152602001838380828437820191505050505050610e8f565b8b8b8e604051808b73ffffffffffffffffffffffffffffffffffffffff1673ffffffffffffffffffffffffffffffffffffffff1681526020018a815260200180602001806020018773ffffffffffffffffffffffffffffffffffffffff1673ffffffffffffffffffffffffffffffffffffffff1681526020018060200185815260200184810384528c8c82818152602001925080828437820191505084810383528a8a828181526020019250808284378201915050848103825287878281815260200192508082843782019150509d505050505050505050505050505060405180910390a160006009888860405180838380828437820191505092505050908152602001604051809103902060030181905550611fab88600989896040518083838082843782019150509250505090815260200160405180910390206004015461339290919063ffffffff16565b6009888860405180838380828437820191505092505050908152602001604051809103902060040181905550436009888860405180838380828437820191505092505050908152602001604051809103902060060181905550600091505b509998505050505050505050565b60006120216133f9565b600260009054906101000a900473ffffffffffffffffffffffffffffffffffffffff1673ffffffffffffffffffffffffffffffffffffffff163373ffffffffffffffffffffffffffffffffffffffff1614806120ca5750600360009054906101000a900473ffffffffffffffffffffffffffffffffffffffff1673ffffffffffffffffffffffffffffffffffffffff163373ffffffffffffffffffffffffffffffffffffffff16145b806121225750600460009054906101000a900473ffffffffffffffffffffffffffffffffffffffff1673ffffffffffffffffffffffffffffffffffffffff163373ffffffffffffffffffffffffffffffffffffffff16145b8061217a5750600560009054906101000a900473ffffffffffffffffffffffffffffffffffffffff1673ffffffffffffffffffffffffffffffffffffffff163373ffffffffffffffffffffffffffffffffffffffff16145b151561218557600080fd5b60011515600a858560405180838380828437820191505092505050908152602001604051809103902060009054906101000a900460ff161515141515156121cb57600080fd5b60e06040519081016040528085858080601f016020809104026020016040519081016040528093929190818152602001838380828437820191505050505050815260200161222560026007546133c190919063ffffffff16565b81526020018673ffffffffffffffffffffffffffffffffffffffff1681526020016003815260200160648152602001600015158152602001600081525090506001600a858560405180838380828437820191505092505050908152602001604051809103902060006101000a81548160ff0219169083151502179055504360098585604051808383808284378201915050925050509081526020016040518091039020600601819055506122e5600160065461337690919063ffffffff16565b60068190555060018190806001815401808255809150509060018203906000526020600020906007020160009091929091909150600082015181600001908051906020019061233592919061344f565b506020820151816001015560408201518160020160006101000a81548173ffffffffffffffffffffffffffffffffffffffff021916908373ffffffffffffffffffffffffffffffffffffffff160217905550606082015181600301556080820151816004015560a08201518160050160006101000a81548160ff02191690831515021790555060c0820151816006015550505060016123e26001808054905061339290919063ffffffff16565b8154811015156123ee57fe5b906000526020600020906007020160098585604051808383808284378201915050925050509081526020016040518091039020600082018160000190805460018160011615610100020316600290046124489291906134cf565b50600182015481600101556002820160009054906101000a900473ffffffffffffffffffffffffffffffffffffffff168160020160006101000a81548173ffffffffffffffffffffffffffffffffffffffff021916908373ffffffffffffffffffffffffffffffffffffffff16021790555060038201548160030155600482015481600401556005820160009054906101000a900460ff168160050160006101000a81548160ff0219169083151502179055506006820154816006015590505060019150509392505050565b60003373ffffffffffffffffffffffffffffffffffffffff166000809054906101000a900473ffffffffffffffffffffffffffffffffffffffff1673ffffffffffffffffffffffffffffffffffffffff1614151561257157600080fd5b84600260006101000a81548173ffffffffffffffffffffffffffffffffffffffff021916908373ffffffffffffffffffffffffffffffffffffffff16021790555083600360006101000a81548173ffffffffffffffffffffffffffffffffffffffff021916908373ffffffffffffffffffffffffffffffffffffffff16021790555082600460006101000a81548173ffffffffffffffffffffffffffffffffffffffff021916908373ffffffffffffffffffffffffffffffffffffffff16021790555081600560006101000a81548173ffffffffffffffffffffffffffffffffffffffff021916908373ffffffffffffffffffffffffffffffffffffffff160217905550949350505050565b60075481565b60065481565b6000806000600260009054906101000a900473ffffffffffffffffffffffffffffffffffffffff1673ffffffffffffffffffffffffffffffffffffffff163373ffffffffffffffffffffffffffffffffffffffff1614806127375750600360009054906101000a900473ffffffffffffffffffffffffffffffffffffffff1673ffffffffffffffffffffffffffffffffffffffff163373ffffffffffffffffffffffffffffffffffffffff16145b8061278f5750600460009054906101000a900473ffffffffffffffffffffffffffffffffffffffff1673ffffffffffffffffffffffffffffffffffffffff163373ffffffffffffffffffffffffffffffffffffffff16145b806127e75750600560009054906101000a900473ffffffffffffffffffffffffffffffffffffffff1673ffffffffffffffffffffffffffffffffffffffff163373ffffffffffffffffffffffffffffffffffffffff16145b15156127f257600080fd5b88888080601f01602080910402602001604051908101604052809392919081815260200183838082843782019150505050505060146009826040518082805190602001908083835b60208310151561285f578051825260208201915060208101905060208303925061283a565b6001836020036101000a03801982511681845116808217855250505050505090500191505090815260200160405180910390206006015401431115156128a457600080fd5b6000925060098a8a60405180838380828437820191505092505050908152602001604051809103902060020160009054906101000a900473ffffffffffffffffffffffffffffffffffffffff16915060018b1415612a6e57612938600260098c8c604051808383808284378201915050925050509081526020016040518091039020600401546133ab90919063ffffffff16565b60098b8b604051808383808284378201915050925050509081526020016040518091039020600401819055507fd9dfa69abeec1e18f86665478a4a78f338fba65505b52042989e3a5ac6ac84da8c8b8b8e868d8d8d8d604051808a73ffffffffffffffffffffffffffffffffffffffff1673ffffffffffffffffffffffffffffffffffffffff168152602001806020018881526020018773ffffffffffffffffffffffffffffffffffffffff1673ffffffffffffffffffffffffffffffffffffffff168152602001806020018060200184810384528c8c82818152602001925080828437820191505084810383528888828181526020019250808284378201915050848103825286868281815260200192508082843782019150509c5050505050505050505050505060405180910390a1600192505b60028b1415612c8b57612ab3600260098c8c604051808383808284378201915050925050509081526020016040518091039020600401546133ab90919063ffffffff16565b60098b8b60405180838380828437820191505092505050908152602001604051809103902060040181905550612b55612b1e600460098d8d604051808383808284378201915050925050509081526020016040518091039020600301546133ab90919063ffffffff16565b60098c8c6040518083838082843782019150509250505090815260200160405180910390206003015461339290919063ffffffff16565b60098b8b604051808383808284378201915050925050509081526020016040518091039020600301819055507fd9dfa69abeec1e18f86665478a4a78f338fba65505b52042989e3a5ac6ac84da8c8b8b8e868d8d8d8d604051808a73ffffffffffffffffffffffffffffffffffffffff1673ffffffffffffffffffffffffffffffffffffffff168152602001806020018881526020018773ffffffffffffffffffffffffffffffffffffffff1673ffffffffffffffffffffffffffffffffffffffff168152602001806020018060200184810384528c8c82818152602001925080828437820191505084810383528888828181526020019250808284378201915050848103825286868281815260200192508082843782019150509c5050505050505050505050505060405180910390a1600192505b60038b1415612dfa57600160098b8b60405180838380828437820191505092505050908152602001604051809103902060040181905550600060098b8b604051808383808284378201915050925050509081526020016040518091039020600301819055507fd9dfa69abeec1e18f86665478a4a78f338fba65505b52042989e3a5ac6ac84da8c8b8b8e868d8d8d8d604051808a73ffffffffffffffffffffffffffffffffffffffff1673ffffffffffffffffffffffffffffffffffffffff168152602001806020018881526020018773ffffffffffffffffffffffffffffffffffffffff1673ffffffffffffffffffffffffffffffffffffffff168152602001806020018060200184810384528c8c82818152602001925080828437820191505084810383528888828181526020019250808284378201915050848103825286868281815260200192508082843782019150509c5050505050505050505050505060405180910390a1600192505b4360098b8b6040518083838082843782019150509250505090815260200160405180910390206006018190555082935050505098975050505050505050565b60006009838360405180838380828437820191505092505050908152602001604051809103902060040154905092915050565b600060011515600a848460405180838380828437820191505092505050908152602001604051809103902060009054906101000a900460ff1615151415612eb65760019050612ebb565b600090505b92915050565b600080612f456009846040518082805190602001908083835b602083101515612eff5780518252602082019150602081019050602083039250612eda565b6001836020036101000a0380198251168184511680821785525050505050509050019150509081526020016040518091039020600601544361339290919063ffffffff16565b90506014811115612f595760009150612f70565b612f6d81601461339290919063ffffffff16565b91505b50919050565b600181815481101515612f8557fe5b9060005260206000209060070201600091509050806000018054600181600116156101000203166002900480601f0160208091040260200160405190810160405280929190818152602001828054600181600116156101000203166002900480156130315780601f1061300657610100808354040283529160200191613031565b820191906000526020600020905b81548152906001019060200180831161301457829003601f168201915b5050505050908060010154908060020160009054906101000a900473ffffffffffffffffffffffffffffffffffffffff16908060030154908060040154908060050160009054906101000a900460ff16908060060154905087565b3373ffffffffffffffffffffffffffffffffffffffff166000809054906101000a900473ffffffffffffffffffffffffffffffffffffffff1673ffffffffffffffffffffffffffffffffffffffff161415156130e757600080fd5b600073ffffffffffffffffffffffffffffffffffffffff168173ffffffffffffffffffffffffffffffffffffffff161415151561312357600080fd5b8073ffffffffffffffffffffffffffffffffffffffff166000809054906101000a900473ffffffffffffffffffffffffffffffffffffffff1673ffffffffffffffffffffffffffffffffffffffff167f8be0079c531659141344cd1fd0a4f28419497f9722a3daafe3b4186f6b6457e060405160405180910390a3806000806101000a81548173ffffffffffffffffffffffffffffffffffffffff021916908373ffffffffffffffffffffffffffffffffffffffff16021790555050565b600260009054906101000a900473ffffffffffffffffffffffffffffffffffffffff1673ffffffffffffffffffffffffffffffffffffffff163373ffffffffffffffffffffffffffffffffffffffff16148061328a5750600360009054906101000a900473ffffffffffffffffffffffffffffffffffffffff1673ffffffffffffffffffffffffffffffffffffffff163373ffffffffffffffffffffffffffffffffffffffff16145b806132e25750600460009054906101000a900473ffffffffffffffffffffffffffffffffffffffff1673ffffffffffffffffffffffffffffffffffffffff163373ffffffffffffffffffffffffffffffffffffffff16145b8061333a5750600560009054906101000a900473ffffffffffffffffffffffffffffffffffffffff1673ffffffffffffffffffffffffffffffffffffffff163373ffffffffffffffffffffffffffffffffffffffff16145b151561334557600080fd5b4360098383604051808383808284378201915050925050509081526020016040518091039020600601819055505050565b6000818301905082811015151561338957fe5b80905092915050565b60008282111515156133a057fe5b818303905092915050565b600081838115156133b857fe5b04905092915050565b6000808314156133d457600090506133f3565b81830290508183828115156133e557fe5b041415156133ef57fe5b8090505b92915050565b60e0604051908101604052806060815260200160008152602001600073ffffffffffffffffffffffffffffffffffffffff1681526020016000815260200160008152602001600015158152602001600081525090565b828054600181600116156101000203166002900490600052602060002090601f016020900481019282601f1061349057805160ff19168380011785556134be565b828001600101855582156134be579182015b828111156134bd5782518255916020019190600101906134a2565b5b5090506134cb9190613556565b5090565b828054600181600116156101000203166002900490600052602060002090601f016020900481019282601f106135085780548555613545565b8280016001018555821561354557600052602060002091601f016020900482015b82811115613544578254825591600101919060010190613529565b5b5090506135529190613556565b5090565b61357891905b8082111561357457600081600090555060010161355c565b5090565b905600a165627a7a72305820c12ac8d50f74002e83311a2c8e9a361e23d21c635340ac6d0e3e32837dad8f7c0029",
  "source": "pragma solidity ^0.4.23;\r\n//pragma experimental ABIEncoderV2;\r\n\r\nimport \"./Ownable.sol\";\r\nimport \"./SafeMath.sol\";\r\n\r\ncontract countriesContract is Ownable {\r\n\r\n    using SafeMath for uint;\r\n\r\n    struct Object {\r\n        string name;\r\n        uint price;\r\n        address propertyOf;\r\n        uint army;\r\n        uint lifepoints;\r\n        bool lock;\r\n        uint timer;\r\n    }\r\n\r\n    Object[] public objects;\r\n    address logicContract;\r\n    address actionsContract;\r\n    address marketplaceContract;\r\n    address attacksContract;\r\n    uint public objectsCreated;\r\n    uint public basePrice;\r\n    uint public height;\r\n    \r\n    mapping(string => Object) getObjByName;\r\n    mapping(string => bool) isGenerated;\r\n\r\n    event armyAdded(uint amount,string name, address adr, bool direction, string nick);\r\n    event attackInflicted(address adr, uint num, string name, string team,address victim, string nick, uint subs);\r\n    event bombInflicted(address adr, string name, uint index, address victim, string team, string nick);\r\n\r\n    constructor(address adr) public {\r\n        basePrice = 20000000000000000; //0.02eth\r\n        logicContract = 0x0;\r\n        owner = adr;\r\n        Object memory newObj = Object(\"\", 0, 0x0, 0, 0, false, 0);\r\n        objects.push(newObj);\r\n        objectsCreated = 0;\r\n        height = now;\r\n    }\r\n\r\n    //MODIFIERS\r\n    modifier onlyOwner {\r\n        require(owner == msg.sender);\r\n        _;\r\n    }\r\n\r\n    modifier timer(string name) {\r\n        require(block.number > getObjByName[name].timer+20);\r\n        _;\r\n    }\r\n\r\n    modifier validAddress  {\r\n        require(msg.sender == logicContract || msg.sender == actionsContract || msg.sender == marketplaceContract || msg.sender == attacksContract);\r\n        _;\r\n    }\r\n\r\n    //SET LOGIC CONTRACT\r\n    function setValidAddress(address logicAdr, address actionsAdr, address marketPlaceAdr, address attacksAdr) onlyOwner external returns (bool) {\r\n        logicContract = logicAdr;\r\n        actionsContract = actionsAdr;\r\n        marketplaceContract = marketPlaceAdr;\r\n        attacksContract = attacksAdr;\r\n    }\r\n\r\n    //Getters\r\n    function getExistence(string name) external view returns (bool) {\r\n        if( isGenerated[name] == true ) return true;\r\n        else return false;\r\n    }\r\n\r\n    function getPrice(string name) external view returns (uint) {\r\n        if(isGenerated[name] == true ) return getObjByName[name].price;\r\n        else return basePrice;\r\n    }\r\n\r\n    function getOwner(string name) public view returns (address) {\r\n        return getObjByName[name].propertyOf;\r\n    }\r\n\r\n    function getBlockLeft(string name) public view returns(uint) {\r\n        uint tmp = block.number.sub(getObjByName[name].timer);\r\n        if( tmp > 20) return uint(0);\r\n        else return uint(20).sub(tmp);\r\n    }\r\n\r\n    function getArmy(string name) external view returns (uint) {\r\n        return getObjByName[name].army;\r\n    }\r\n\r\n    function getLifePoints(string name) external view returns (uint) {\r\n        return getObjByName[name].lifepoints;\r\n    }\r\n\r\n    //Generator\r\n    function newObject(address adr, string name) validAddress external returns(bool) {\r\n        require(isGenerated[name] != true);\r\n        Object memory newObj = Object(name, basePrice.mul(2), adr, 3, 100,false,0);\r\n        isGenerated[name] = true;\r\n        getObjByName[name].timer = block.number;\r\n        objectsCreated = objectsCreated.add(1);\r\n        objects.push(newObj);\r\n        getObjByName[name] = objects[objects.length.sub(1)];\r\n        return true;\r\n    }\r\n\r\n    //Set timer\r\n    function setTimer(string name) validAddress external {\r\n        getObjByName[name].timer = block.number;\r\n    }\r\n\r\n    //Change Owner\r\n    function changeOwnership(string name, address adr, uint army, uint lifepoints) validAddress public returns(bool) {\r\n        if( getObjByName[name].propertyOf != adr ) getObjByName[name].propertyOf = adr;\r\n        if(army != 0) getObjByName[name].army = army;\r\n        if(lifepoints != 0 ) getObjByName[name].lifepoints = lifepoints;\r\n\r\n        return true;\r\n    }\r\n\r\n    //Add lifepoints\r\n    function addLifePoints(string name, address adr, uint quantity) validAddress public returns(bool) {\r\n        require( getObjByName[name].propertyOf == adr );\r\n        getObjByName[name].lifepoints = getObjByName[name].lifepoints.add(quantity);\r\n        return true;\r\n    }\r\n\r\n    //Add/remove army in/from state toggle = 1 add, toggle = 0 remove\r\n    function changeArmy(address adr, uint quantity, string name, bool toggle, string nick, bool hide) validAddress external {\r\n        if(hide == true) {\r\n            getObjByName[name].army = quantity;\r\n            return;\r\n        }\r\n        if(toggle == false) {\r\n            require(quantity <= getObjByName[name].army && getObjByName[name].propertyOf == adr);\r\n            getObjByName[name].army = getObjByName[name].army.sub(quantity);\r\n            emit armyAdded(quantity, name, adr, false, nick);\r\n        }\r\n        else if(toggle == true) {\r\n            require(getObjByName[name].propertyOf == adr && getObjByName[name].lock == false);\r\n            getObjByName[name].army = getObjByName[name].army.add(quantity);\r\n            emit armyAdded(quantity, name, adr, true, nick);\r\n        }\r\n    }\r\n\r\n    //Buy an existing object\r\n    function buyObject(string name, uint value) validAddress external {\r\n        require(value >= getObjByName[name].price.add(getObjByName[name].price.div(10)));\r\n        getObjByName[name].price = getObjByName[name].price.mul(2);\r\n        getObjByName[name].timer = block.number;\r\n    }\r\n   \r\n    //attack\r\n    function attack(address adr,string team,uint damage, string name, uint subs, string nick) validAddress timer(name) external returns(bool) {\r\n        if( getObjByName[name].lifepoints <= damage ) {\r\n            changeOwnership(name,adr,subs,100);\r\n            getObjByName[name].timer = block.number;\r\n            return true;\r\n            }\r\n        else {\r\n            emit attackInflicted(adr,damage,name, team, getOwner(name), nick, subs);\r\n            getObjByName[name].army = 0;\r\n            getObjByName[name].lifepoints = getObjByName[name].lifepoints.sub(damage);\r\n            getObjByName[name].timer = block.number;\r\n            return false;\r\n        }\r\n    }\r\n\r\n    function applyBombCard(address adr, uint index, string name, string team, string nick) validAddress external timer(name) returns(bool) {\r\n        bool exhit = false;\r\n        address victim = getObjByName[name].propertyOf;\r\n        if(index == 1) {\r\n            getObjByName[name].lifepoints = getObjByName[name].lifepoints.div(2);\r\n            emit bombInflicted(adr,name,index,victim,team,nick);\r\n            exhit = true;\r\n        }\r\n        if(index == 2) {\r\n            getObjByName[name].lifepoints = getObjByName[name].lifepoints.div(2);\r\n            getObjByName[name].army = getObjByName[name].army.sub(getObjByName[name].army.div(4));\r\n            emit bombInflicted(adr,name,index,victim,team,nick);\r\n            exhit = true;\r\n        }\r\n        if(index == 3) {\r\n            getObjByName[name].lifepoints = 1;\r\n            getObjByName[name].army = 0;\r\n            emit bombInflicted(adr,name,index,victim,team,nick);\r\n            exhit = true;\r\n        }\r\n        getObjByName[name].timer = block.number;\r\n        return exhit;\r\n    }\r\n}",
  "sourcePath": "C:\\Users\\mauri\\Desktop\\Crysk\\contracts\\countriesContract.sol",
  "compiler": {
    "name": "solc",
    "version": "0.4.23+commit.124ca40d.Emscripten.clang"
  },
  "schemaVersion": "2.0.0",
  "updatedAt": "2018-09-21T15:36:34.926Z"
}