{
  "contractName": "Crysk",
  "abi": [
    {
      "constant": true,
      "inputs": [],
      "name": "owner",
      "outputs": [
        {
          "name": "",
          "type": "address"
        }
      ],
      "payable": false,
      "stateMutability": "view",
      "type": "function"
    },
    {
      "constant": false,
      "inputs": [
        {
          "name": "newOwner",
          "type": "address"
        }
      ],
      "name": "transferOwnership",
      "outputs": [],
      "payable": false,
      "stateMutability": "nonpayable",
      "type": "function"
    },
    {
      "inputs": [
        {
          "name": "adr",
          "type": "address"
        }
      ],
      "payable": false,
      "stateMutability": "nonpayable",
      "type": "constructor"
    },
    {
      "anonymous": false,
      "inputs": [
        {
          "indexed": true,
          "name": "previousOwner",
          "type": "address"
        },
        {
          "indexed": true,
          "name": "newOwner",
          "type": "address"
        }
      ],
      "name": "OwnershipTransferred",
      "type": "event"
    },
    {
      "constant": false,
      "inputs": [
        {
          "name": "adr",
          "type": "address"
        }
      ],
      "name": "setLogicContract",
      "outputs": [
        {
          "name": "",
          "type": "bool"
        }
      ],
      "payable": false,
      "stateMutability": "nonpayable",
      "type": "function"
    },
    {
      "constant": false,
      "inputs": [
        {
          "name": "adr",
          "type": "address"
        }
      ],
      "name": "setmarketplaceContract",
      "outputs": [
        {
          "name": "",
          "type": "bool"
        }
      ],
      "payable": false,
      "stateMutability": "nonpayable",
      "type": "function"
    },
    {
      "constant": false,
      "inputs": [
        {
          "name": "adr",
          "type": "address"
        }
      ],
      "name": "setPlayerContract",
      "outputs": [
        {
          "name": "",
          "type": "bool"
        }
      ],
      "payable": false,
      "stateMutability": "nonpayable",
      "type": "function"
    },
    {
      "constant": false,
      "inputs": [
        {
          "name": "adr",
          "type": "address"
        }
      ],
      "name": "setCountryContract",
      "outputs": [
        {
          "name": "",
          "type": "bool"
        }
      ],
      "payable": false,
      "stateMutability": "nonpayable",
      "type": "function"
    },
    {
      "constant": false,
      "inputs": [
        {
          "name": "adr",
          "type": "address"
        }
      ],
      "name": "setBombCardContract",
      "outputs": [
        {
          "name": "",
          "type": "bool"
        }
      ],
      "payable": false,
      "stateMutability": "nonpayable",
      "type": "function"
    },
    {
      "constant": true,
      "inputs": [],
      "name": "getUsercards",
      "outputs": [
        {
          "name": "",
          "type": "uint256[3]"
        }
      ],
      "payable": false,
      "stateMutability": "view",
      "type": "function"
    },
    {
      "constant": true,
      "inputs": [
        {
          "name": "index",
          "type": "uint256"
        }
      ],
      "name": "getCardPrice",
      "outputs": [
        {
          "name": "",
          "type": "uint256"
        }
      ],
      "payable": false,
      "stateMutability": "view",
      "type": "function"
    },
    {
      "constant": true,
      "inputs": [
        {
          "name": "adr",
          "type": "address"
        }
      ],
      "name": "getAvailableArmy",
      "outputs": [
        {
          "name": "",
          "type": "uint256"
        }
      ],
      "payable": false,
      "stateMutability": "view",
      "type": "function"
    },
    {
      "constant": true,
      "inputs": [
        {
          "name": "adr",
          "type": "address"
        }
      ],
      "name": "getPlayerLvl",
      "outputs": [
        {
          "name": "",
          "type": "uint256"
        }
      ],
      "payable": false,
      "stateMutability": "view",
      "type": "function"
    },
    {
      "constant": true,
      "inputs": [
        {
          "name": "adr",
          "type": "address"
        }
      ],
      "name": "getPlayerTeam",
      "outputs": [
        {
          "name": "",
          "type": "string"
        }
      ],
      "payable": false,
      "stateMutability": "view",
      "type": "function"
    },
    {
      "constant": true,
      "inputs": [
        {
          "name": "adr",
          "type": "address"
        }
      ],
      "name": "getPlayerNickname",
      "outputs": [
        {
          "name": "",
          "type": "string"
        }
      ],
      "payable": false,
      "stateMutability": "view",
      "type": "function"
    },
    {
      "constant": true,
      "inputs": [
        {
          "name": "adr",
          "type": "address"
        }
      ],
      "name": "getPlayerUpgrades",
      "outputs": [
        {
          "name": "",
          "type": "uint256"
        }
      ],
      "payable": false,
      "stateMutability": "view",
      "type": "function"
    },
    {
      "constant": true,
      "inputs": [
        {
          "name": "adr",
          "type": "address"
        }
      ],
      "name": "getTotalOwned",
      "outputs": [
        {
          "name": "",
          "type": "uint256"
        }
      ],
      "payable": false,
      "stateMutability": "view",
      "type": "function"
    },
    {
      "constant": true,
      "inputs": [
        {
          "name": "adr",
          "type": "address"
        }
      ],
      "name": "getPlayerExpPts",
      "outputs": [
        {
          "name": "",
          "type": "uint256"
        }
      ],
      "payable": false,
      "stateMutability": "view",
      "type": "function"
    },
    {
      "constant": true,
      "inputs": [
        {
          "name": "name",
          "type": "string"
        }
      ],
      "name": "itExists",
      "outputs": [
        {
          "name": "",
          "type": "bool"
        }
      ],
      "payable": false,
      "stateMutability": "view",
      "type": "function"
    },
    {
      "constant": true,
      "inputs": [
        {
          "name": "name",
          "type": "string"
        }
      ],
      "name": "getPrice",
      "outputs": [
        {
          "name": "",
          "type": "uint256"
        }
      ],
      "payable": false,
      "stateMutability": "view",
      "type": "function"
    },
    {
      "constant": true,
      "inputs": [
        {
          "name": "name",
          "type": "string"
        }
      ],
      "name": "getArmy",
      "outputs": [
        {
          "name": "",
          "type": "uint256"
        }
      ],
      "payable": false,
      "stateMutability": "view",
      "type": "function"
    },
    {
      "constant": true,
      "inputs": [
        {
          "name": "name",
          "type": "string"
        }
      ],
      "name": "getOwner",
      "outputs": [
        {
          "name": "",
          "type": "address"
        }
      ],
      "payable": false,
      "stateMutability": "view",
      "type": "function"
    },
    {
      "constant": true,
      "inputs": [
        {
          "name": "name",
          "type": "string"
        }
      ],
      "name": "getLifePoints",
      "outputs": [
        {
          "name": "",
          "type": "uint256"
        }
      ],
      "payable": false,
      "stateMutability": "view",
      "type": "function"
    },
    {
      "constant": true,
      "inputs": [
        {
          "name": "name",
          "type": "string"
        }
      ],
      "name": "getTimer",
      "outputs": [
        {
          "name": "",
          "type": "uint256"
        }
      ],
      "payable": false,
      "stateMutability": "view",
      "type": "function"
    },
    {
      "constant": true,
      "inputs": [],
      "name": "getArmyUnitPrice",
      "outputs": [
        {
          "name": "",
          "type": "uint256"
        }
      ],
      "payable": false,
      "stateMutability": "view",
      "type": "function"
    },
    {
      "constant": true,
      "inputs": [],
      "name": "getLifePointUnitPrice",
      "outputs": [
        {
          "name": "",
          "type": "uint256"
        }
      ],
      "payable": false,
      "stateMutability": "view",
      "type": "function"
    },
    {
      "constant": false,
      "inputs": [
        {
          "name": "quantity",
          "type": "uint256"
        }
      ],
      "name": "buyArmy",
      "outputs": [],
      "payable": true,
      "stateMutability": "payable",
      "type": "function"
    },
    {
      "constant": false,
      "inputs": [
        {
          "name": "name",
          "type": "string"
        },
        {
          "name": "quantity",
          "type": "uint256"
        }
      ],
      "name": "buyLifePoints",
      "outputs": [],
      "payable": true,
      "stateMutability": "payable",
      "type": "function"
    },
    {
      "constant": false,
      "inputs": [
        {
          "name": "name",
          "type": "string"
        }
      ],
      "name": "buyObject",
      "outputs": [],
      "payable": true,
      "stateMutability": "payable",
      "type": "function"
    },
    {
      "constant": false,
      "inputs": [
        {
          "name": "index",
          "type": "uint256"
        }
      ],
      "name": "buyBombCards",
      "outputs": [],
      "payable": true,
      "stateMutability": "payable",
      "type": "function"
    },
    {
      "constant": false,
      "inputs": [
        {
          "name": "adr",
          "type": "address"
        }
      ],
      "name": "upgradeAttackDmg",
      "outputs": [
        {
          "name": "",
          "type": "uint256"
        }
      ],
      "payable": false,
      "stateMutability": "nonpayable",
      "type": "function"
    },
    {
      "constant": false,
      "inputs": [
        {
          "name": "adr",
          "type": "address"
        }
      ],
      "name": "upgradeDefense",
      "outputs": [
        {
          "name": "",
          "type": "uint256"
        }
      ],
      "payable": false,
      "stateMutability": "nonpayable",
      "type": "function"
    },
    {
      "constant": false,
      "inputs": [
        {
          "name": "quantity",
          "type": "uint256"
        },
        {
          "name": "name",
          "type": "string"
        }
      ],
      "name": "addArmyInState",
      "outputs": [],
      "payable": false,
      "stateMutability": "nonpayable",
      "type": "function"
    },
    {
      "constant": false,
      "inputs": [
        {
          "name": "quantity",
          "type": "uint256"
        },
        {
          "name": "name",
          "type": "string"
        }
      ],
      "name": "subArmyFromState",
      "outputs": [],
      "payable": false,
      "stateMutability": "nonpayable",
      "type": "function"
    },
    {
      "constant": false,
      "inputs": [
        {
          "name": "name",
          "type": "string"
        }
      ],
      "name": "changeTeam",
      "outputs": [
        {
          "name": "",
          "type": "bool"
        }
      ],
      "payable": false,
      "stateMutability": "nonpayable",
      "type": "function"
    },
    {
      "constant": false,
      "inputs": [
        {
          "name": "name",
          "type": "string"
        }
      ],
      "name": "changeNickname",
      "outputs": [
        {
          "name": "",
          "type": "bool"
        }
      ],
      "payable": false,
      "stateMutability": "nonpayable",
      "type": "function"
    },
    {
      "constant": false,
      "inputs": [
        {
          "name": "team",
          "type": "string"
        },
        {
          "name": "nick",
          "type": "string"
        }
      ],
      "name": "signUp",
      "outputs": [
        {
          "name": "",
          "type": "bool"
        }
      ],
      "payable": false,
      "stateMutability": "nonpayable",
      "type": "function"
    },
    {
      "constant": false,
      "inputs": [
        {
          "name": "to",
          "type": "string"
        },
        {
          "name": "quantity",
          "type": "uint256"
        }
      ],
      "name": "attack",
      "outputs": [],
      "payable": false,
      "stateMutability": "nonpayable",
      "type": "function"
    },
    {
      "constant": false,
      "inputs": [
        {
          "name": "index",
          "type": "uint256"
        },
        {
          "name": "name",
          "type": "string"
        }
      ],
      "name": "applyBombCard",
      "outputs": [
        {
          "name": "",
          "type": "bool"
        }
      ],
      "payable": false,
      "stateMutability": "nonpayable",
      "type": "function"
    }
  ],
  "bytecode": "0x608060405234801561001057600080fd5b506040516020806134ee83398101806040528101908080519060200190929190505050336000806101000a81548173ffffffffffffffffffffffffffffffffffffffff021916908373ffffffffffffffffffffffffffffffffffffffff160217905550806000806101000a81548173ffffffffffffffffffffffffffffffffffffffff021916908373ffffffffffffffffffffffffffffffffffffffff1602179055506000600160006101000a81548173ffffffffffffffffffffffffffffffffffffffff021916908373ffffffffffffffffffffffffffffffffffffffff1602179055506000600360006101000a81548173ffffffffffffffffffffffffffffffffffffffff021916908373ffffffffffffffffffffffffffffffffffffffff1602179055506000600460006101000a81548173ffffffffffffffffffffffffffffffffffffffff021916908373ffffffffffffffffffffffffffffffffffffffff1602179055506000600560006101000a81548173ffffffffffffffffffffffffffffffffffffffff021916908373ffffffffffffffffffffffffffffffffffffffff1602179055506000600260006101000a81548173ffffffffffffffffffffffffffffffffffffffff021916908373ffffffffffffffffffffffffffffffffffffffff160217905550506132e18061020d6000396000f3006080604052600436106101cc576000357c0100000000000000000000000000000000000000000000000000000000900463ffffffff168062dd9e65146101d157806303065675146101fc5780631ed64b3a146102b85780633724fae81461030f5780633c7eadb01461033a5780634001de761461037f57806341becb321461039f57806346607a34146103f657806348656f6a146104495780634aaf4a121461048e5780635036a09214610537578063524f3889146105925780635686365e146105e15780635aa4470f1461065e57806365ba3a0f146106b95780636866537d1461070c5780636f2126cd1461074d57806371923eda146107a0578063739ee874146107f7578063852c1f631461084e578063866c3fed1461089d5780638da5cb5b146108f45780638dbab8041461094b57806391df6c70146109a65780639474e23914610a01578063a1157cde14610a46578063a469a33214610a99578063acf6774614610b04578063b5c4f3d514610bc0578063bffd216e14610be0578063c7d2da8214610c3d578063d15bf7ef14610c94578063df80db4d14610cef578063e3e83a1414610d6c578063e955bbd914610d9a578063f2fde38b14610dd2578063ffc4ff6a14610e15575b600080fd5b3480156101dd57600080fd5b506101e6610e6c565b6040518082815260200191505060405180910390f35b34801561020857600080fd5b5061023d600480360381019080803573ffffffffffffffffffffffffffffffffffffffff169060200190929190505050610f34565b6040518080602001828103825283818151815260200191508051906020019080838360005b8381101561027d578082015181840152602081019050610262565b50505050905090810190601f1680156102aa5780820380516001836020036101000a031916815260200191505b509250505060405180910390f35b3480156102c457600080fd5b506102f9600480360381019080803573ffffffffffffffffffffffffffffffffffffffff16906020019092919050505061108b565b6040518082815260200191505060405180910390f35b34801561031b57600080fd5b50610324611174565b6040518082815260200191505060405180910390f35b34801561034657600080fd5b5061037d6004803603810190808035906020019092919080359060200190820180359060200191909192939192939050505061123c565b005b61039d60048036038101908080359060200190929190505050611340565b005b3480156103ab57600080fd5b506103e0600480360381019080803573ffffffffffffffffffffffffffffffffffffffff169060200190929190505050611421565b6040518082815260200191505060405180910390f35b34801561040257600080fd5b5061042f600480360381019080803590602001908201803590602001919091929391929390505050611522565b604051808215151515815260200191505060405180910390f35b34801561045557600080fd5b5061048c60048036038101908080359060200190929190803590602001908201803590602001919091929391929390505050611621565b005b34801561049a57600080fd5b506104f5600480360381019080803590602001908201803590602001908080601f0160208091040260200160405190810160405280939291908181526020018383808284378201915050505050509192919290505050611725565b604051808273ffffffffffffffffffffffffffffffffffffffff1673ffffffffffffffffffffffffffffffffffffffff16815260200191505060405180910390f35b34801561054357600080fd5b50610578600480360381019080803573ffffffffffffffffffffffffffffffffffffffff16906020019092919050505061185f565b604051808215151515815260200191505060405180910390f35b34801561059e57600080fd5b506105cb600480360381019080803590602001908201803590602001919091929391929390505050611906565b6040518082815260200191505060405180910390f35b3480156105ed57600080fd5b50610648600480360381019080803590602001908201803590602001908080601f01602080910402602001604051908101604052809392919081815260200183838082843782019150505050505091929192905050506119f6565b6040518082815260200191505060405180910390f35b34801561066a57600080fd5b5061069f600480360381019080803573ffffffffffffffffffffffffffffffffffffffff169060200190929190505050611b30565b604051808215151515815260200191505060405180910390f35b3480156106c557600080fd5b506106f2600480360381019080803590602001908201803590602001919091929391929390505050611bd7565b604051808215151515815260200191505060405180910390f35b34801561071857600080fd5b5061073760048036038101908080359060200190929190505050611cc7565b6040518082815260200191505060405180910390f35b34801561075957600080fd5b50610762611d9c565b6040518082600360200280838360005b8381101561078d578082015181840152602081019050610772565b5050505090500191505060405180910390f35b3480156107ac57600080fd5b506107e1600480360381019080803573ffffffffffffffffffffffffffffffffffffffff169060200190929190505050611ea7565b6040518082815260200191505060405180910390f35b34801561080357600080fd5b50610838600480360381019080803573ffffffffffffffffffffffffffffffffffffffff169060200190929190505050611fa8565b6040518082815260200191505060405180910390f35b34801561085a57600080fd5b50610887600480360381019080803590602001908201803590602001919091929391929390505050612091565b6040518082815260200191505060405180910390f35b3480156108a957600080fd5b506108de600480360381019080803573ffffffffffffffffffffffffffffffffffffffff169060200190929190505050612181565b6040518082815260200191505060405180910390f35b34801561090057600080fd5b50610909612282565b604051808273ffffffffffffffffffffffffffffffffffffffff1673ffffffffffffffffffffffffffffffffffffffff16815260200191505060405180910390f35b34801561095757600080fd5b5061098c600480360381019080803573ffffffffffffffffffffffffffffffffffffffff1690602001909291905050506122a7565b604051808215151515815260200191505060405180910390f35b3480156109b257600080fd5b506109e7600480360381019080803573ffffffffffffffffffffffffffffffffffffffff16906020019092919050505061234e565b604051808215151515815260200191505060405180910390f35b348015610a0d57600080fd5b50610a44600480360381019080803590602001908201803590602001919091929391929390803590602001909291905050506123f5565b005b348015610a5257600080fd5b50610a7f6004803603810190808035906020019082018035906020019190919293919293905050506124f9565b604051808215151515815260200191505060405180910390f35b348015610aa557600080fd5b50610aea6004803603810190808035906020019082018035906020019190919293919293908035906020019082018035906020019190919293919293905050506125f8565b604051808215151515815260200191505060405180910390f35b348015610b1057600080fd5b50610b45600480360381019080803573ffffffffffffffffffffffffffffffffffffffff1690602001909291905050506127f4565b6040518080602001828103825283818151815260200191508051906020019080838360005b83811015610b85578082015181840152602081019050610b6a565b50505050905090810190601f168015610bb25780820380516001836020036101000a031916815260200191505b509250505060405180910390f35b610bde6004803603810190808035906020019092919050505061294b565b005b348015610bec57600080fd5b50610c2360048036038101908080359060200190929190803590602001908201803590602001919091929391929390505050612a2c565b604051808215151515815260200191505060405180910390f35b348015610c4957600080fd5b50610c7e600480360381019080803573ffffffffffffffffffffffffffffffffffffffff169060200190929190505050612b59565b6040518082815260200191505060405180910390f35b348015610ca057600080fd5b50610cd5600480360381019080803573ffffffffffffffffffffffffffffffffffffffff169060200190929190505050612c5a565b604051808215151515815260200191505060405180910390f35b348015610cfb57600080fd5b50610d56600480360381019080803590602001908201803590602001908080601f0160208091040260200160405190810160405280939291908181526020018383808284378201915050505050509192919290505050612d01565b6040518082815260200191505060405180910390f35b610d98600480360381019080803590602001908201803590602001919091929391929390505050612e3b565b005b610dd060048036038101908080359060200190820180359060200191909192939192939080359060200190929190505050612f37565b005b348015610dde57600080fd5b50610e13600480360381019080803573ffffffffffffffffffffffffffffffffffffffff16906020019092919050505061303c565b005b348015610e2157600080fd5b50610e56600480360381019080803573ffffffffffffffffffffffffffffffffffffffff169060200190929190505050613191565b6040518082815260200191505060405180910390f35b6000600560009054906101000a900473ffffffffffffffffffffffffffffffffffffffff1673ffffffffffffffffffffffffffffffffffffffff166364c9ed496040518163ffffffff167c0100000000000000000000000000000000000000000000000000000000028152600401602060405180830381600087803b158015610ef457600080fd5b505af1158015610f08573d6000803e3d6000fd5b505050506040513d6020811015610f1e57600080fd5b8101908080519060200190929190505050905090565b6060600360009054906101000a900473ffffffffffffffffffffffffffffffffffffffff1673ffffffffffffffffffffffffffffffffffffffff1663adaccd74836040518263ffffffff167c0100000000000000000000000000000000000000000000000000000000028152600401808273ffffffffffffffffffffffffffffffffffffffff1673ffffffffffffffffffffffffffffffffffffffff168152602001915050600060405180830381600087803b158015610ff357600080fd5b505af1158015611007573d6000803e3d6000fd5b505050506040513d6000823e3d601f19601f82011682018060405250602081101561103157600080fd5b81019080805164010000000081111561104957600080fd5b8281019050602081018481111561105f57600080fd5b815185600182028301116401000000008211171561107c57600080fd5b50509291905050509050919050565b6000600160009054906101000a900473ffffffffffffffffffffffffffffffffffffffff1673ffffffffffffffffffffffffffffffffffffffff1663049b002a8360006040518363ffffffff167c0100000000000000000000000000000000000000000000000000000000028152600401808373ffffffffffffffffffffffffffffffffffffffff1673ffffffffffffffffffffffffffffffffffffffff1681526020018215151515815260200192505050600060405180830381600087803b15801561115757600080fd5b505af115801561116b573d6000803e3d6000fd5b50505050919050565b6000600560009054906101000a900473ffffffffffffffffffffffffffffffffffffffff1673ffffffffffffffffffffffffffffffffffffffff16635566d1cf6040518163ffffffff167c0100000000000000000000000000000000000000000000000000000000028152600401602060405180830381600087803b1580156111fc57600080fd5b505af1158015611210573d6000803e3d6000fd5b505050506040513d602081101561122657600080fd5b8101908080519060200190929190505050905090565b600160009054906101000a900473ffffffffffffffffffffffffffffffffffffffff1673ffffffffffffffffffffffffffffffffffffffff1663157c983b338585856040518563ffffffff167c0100000000000000000000000000000000000000000000000000000000028152600401808573ffffffffffffffffffffffffffffffffffffffff1673ffffffffffffffffffffffffffffffffffffffff168152602001848152602001806020018281038252848482818152602001925080828437820191505095505050505050600060405180830381600087803b15801561132357600080fd5b505af1158015611337573d6000803e3d6000fd5b50505050505050565b600160009054906101000a900473ffffffffffffffffffffffffffffffffffffffff1673ffffffffffffffffffffffffffffffffffffffff1663ce6b03663433846040518463ffffffff167c0100000000000000000000000000000000000000000000000000000000028152600401808373ffffffffffffffffffffffffffffffffffffffff1673ffffffffffffffffffffffffffffffffffffffff168152602001828152602001925050506000604051808303818588803b15801561140557600080fd5b505af1158015611419573d6000803e3d6000fd5b505050505050565b6000600360009054906101000a900473ffffffffffffffffffffffffffffffffffffffff1673ffffffffffffffffffffffffffffffffffffffff166341becb32836040518263ffffffff167c0100000000000000000000000000000000000000000000000000000000028152600401808273ffffffffffffffffffffffffffffffffffffffff1673ffffffffffffffffffffffffffffffffffffffff168152602001915050602060405180830381600087803b1580156114e057600080fd5b505af11580156114f4573d6000803e3d6000fd5b505050506040513d602081101561150a57600080fd5b81019080805190602001909291905050509050919050565b6000600160009054906101000a900473ffffffffffffffffffffffffffffffffffffffff1673ffffffffffffffffffffffffffffffffffffffff1663f81a3bc73385856040518463ffffffff167c0100000000000000000000000000000000000000000000000000000000028152600401808473ffffffffffffffffffffffffffffffffffffffff1673ffffffffffffffffffffffffffffffffffffffff1681526020018060200182810382528484828181526020019250808284378201915050945050505050600060405180830381600087803b15801561160357600080fd5b505af1158015611617573d6000803e3d6000fd5b5050505092915050565b600160009054906101000a900473ffffffffffffffffffffffffffffffffffffffff1673ffffffffffffffffffffffffffffffffffffffff166313587a9e338585856040518563ffffffff167c0100000000000000000000000000000000000000000000000000000000028152600401808573ffffffffffffffffffffffffffffffffffffffff1673ffffffffffffffffffffffffffffffffffffffff168152602001848152602001806020018281038252848482818152602001925080828437820191505095505050505050600060405180830381600087803b15801561170857600080fd5b505af115801561171c573d6000803e3d6000fd5b50505050505050565b6000600460009054906101000a900473ffffffffffffffffffffffffffffffffffffffff1673ffffffffffffffffffffffffffffffffffffffff16634aaf4a12836040518263ffffffff167c01000000000000000000000000000000000000000000000000000000000281526004018080602001828103825283818151815260200191508051906020019080838360005b838110156117d15780820151818401526020810190506117b6565b50505050905090810190601f1680156117fe5780820380516001836020036101000a031916815260200191505b5092505050602060405180830381600087803b15801561181d57600080fd5b505af1158015611831573d6000803e3d6000fd5b505050506040513d602081101561184757600080fd5b81019080805190602001909291905050509050919050565b60008060009054906101000a900473ffffffffffffffffffffffffffffffffffffffff1673ffffffffffffffffffffffffffffffffffffffff163373ffffffffffffffffffffffffffffffffffffffff161415156118bc57600080fd5b81600560006101000a81548173ffffffffffffffffffffffffffffffffffffffff021916908373ffffffffffffffffffffffffffffffffffffffff16021790555060019050919050565b6000600460009054906101000a900473ffffffffffffffffffffffffffffffffffffffff1673ffffffffffffffffffffffffffffffffffffffff1663524f388984846040518363ffffffff167c01000000000000000000000000000000000000000000000000000000000281526004018080602001828103825284848281815260200192508082843782019150509350505050602060405180830381600087803b1580156119b357600080fd5b505af11580156119c7573d6000803e3d6000fd5b505050506040513d60208110156119dd57600080fd5b8101908080519060200190929190505050905092915050565b6000600460009054906101000a900473ffffffffffffffffffffffffffffffffffffffff1673ffffffffffffffffffffffffffffffffffffffff1663e9ef48cc836040518263ffffffff167c01000000000000000000000000000000000000000000000000000000000281526004018080602001828103825283818151815260200191508051906020019080838360005b83811015611aa2578082015181840152602081019050611a87565b50505050905090810190601f168015611acf5780820380516001836020036101000a031916815260200191505b5092505050602060405180830381600087803b158015611aee57600080fd5b505af1158015611b02573d6000803e3d6000fd5b505050506040513d6020811015611b1857600080fd5b81019080805190602001909291905050509050919050565b60008060009054906101000a900473ffffffffffffffffffffffffffffffffffffffff1673ffffffffffffffffffffffffffffffffffffffff163373ffffffffffffffffffffffffffffffffffffffff16141515611b8d57600080fd5b81600160006101000a81548173ffffffffffffffffffffffffffffffffffffffff021916908373ffffffffffffffffffffffffffffffffffffffff16021790555060019050919050565b6000600460009054906101000a900473ffffffffffffffffffffffffffffffffffffffff1673ffffffffffffffffffffffffffffffffffffffff1663e71fa10584846040518363ffffffff167c01000000000000000000000000000000000000000000000000000000000281526004018080602001828103825284848281815260200192508082843782019150509350505050602060405180830381600087803b158015611c8457600080fd5b505af1158015611c98573d6000803e3d6000fd5b505050506040513d6020811015611cae57600080fd5b8101908080519060200190929190505050905092915050565b6000600260009054906101000a900473ffffffffffffffffffffffffffffffffffffffff1673ffffffffffffffffffffffffffffffffffffffff1663e7572230836040518263ffffffff167c010000000000000000000000000000000000000000000000000000000002815260040180828152602001915050602060405180830381600087803b158015611d5a57600080fd5b505af1158015611d6e573d6000803e3d6000fd5b505050506040513d6020811015611d8457600080fd5b81019080805190602001909291905050509050919050565b611da4613292565b600260009054906101000a900473ffffffffffffffffffffffffffffffffffffffff1673ffffffffffffffffffffffffffffffffffffffff166388d9f40d336040518263ffffffff167c0100000000000000000000000000000000000000000000000000000000028152600401808273ffffffffffffffffffffffffffffffffffffffff1673ffffffffffffffffffffffffffffffffffffffff168152602001915050606060405180830381600087803b158015611e6157600080fd5b505af1158015611e75573d6000803e3d6000fd5b505050506040513d601f19601f820116820180604052506060811015611e9a57600080fd5b8101908091905050905090565b6000600360009054906101000a900473ffffffffffffffffffffffffffffffffffffffff1673ffffffffffffffffffffffffffffffffffffffff1663b49634df836040518263ffffffff167c0100000000000000000000000000000000000000000000000000000000028152600401808273ffffffffffffffffffffffffffffffffffffffff1673ffffffffffffffffffffffffffffffffffffffff168152602001915050602060405180830381600087803b158015611f6657600080fd5b505af1158015611f7a573d6000803e3d6000fd5b505050506040513d6020811015611f9057600080fd5b81019080805190602001909291905050509050919050565b6000600160009054906101000a900473ffffffffffffffffffffffffffffffffffffffff1673ffffffffffffffffffffffffffffffffffffffff1663049b002a8360016040518363ffffffff167c0100000000000000000000000000000000000000000000000000000000028152600401808373ffffffffffffffffffffffffffffffffffffffff1673ffffffffffffffffffffffffffffffffffffffff1681526020018215151515815260200192505050600060405180830381600087803b15801561207457600080fd5b505af1158015612088573d6000803e3d6000fd5b50505050919050565b6000600460009054906101000a900473ffffffffffffffffffffffffffffffffffffffff1673ffffffffffffffffffffffffffffffffffffffff1663852c1f6384846040518363ffffffff167c01000000000000000000000000000000000000000000000000000000000281526004018080602001828103825284848281815260200192508082843782019150509350505050602060405180830381600087803b15801561213e57600080fd5b505af1158015612152573d6000803e3d6000fd5b505050506040513d602081101561216857600080fd5b8101908080519060200190929190505050905092915050565b6000600360009054906101000a900473ffffffffffffffffffffffffffffffffffffffff1673ffffffffffffffffffffffffffffffffffffffff166353d7da60836040518263ffffffff167c0100000000000000000000000000000000000000000000000000000000028152600401808273ffffffffffffffffffffffffffffffffffffffff1673ffffffffffffffffffffffffffffffffffffffff168152602001915050602060405180830381600087803b15801561224057600080fd5b505af1158015612254573d6000803e3d6000fd5b505050506040513d602081101561226a57600080fd5b81019080805190602001909291905050509050919050565b6000809054906101000a900473ffffffffffffffffffffffffffffffffffffffff1681565b60008060009054906101000a900473ffffffffffffffffffffffffffffffffffffffff1673ffffffffffffffffffffffffffffffffffffffff163373ffffffffffffffffffffffffffffffffffffffff1614151561230457600080fd5b81600460006101000a81548173ffffffffffffffffffffffffffffffffffffffff021916908373ffffffffffffffffffffffffffffffffffffffff16021790555060019050919050565b60008060009054906101000a900473ffffffffffffffffffffffffffffffffffffffff1673ffffffffffffffffffffffffffffffffffffffff163373ffffffffffffffffffffffffffffffffffffffff161415156123ab57600080fd5b81600360006101000a81548173ffffffffffffffffffffffffffffffffffffffff021916908373ffffffffffffffffffffffffffffffffffffffff16021790555060019050919050565b600160009054906101000a900473ffffffffffffffffffffffffffffffffffffffff1673ffffffffffffffffffffffffffffffffffffffff1663f4dce749338585856040518563ffffffff167c0100000000000000000000000000000000000000000000000000000000028152600401808573ffffffffffffffffffffffffffffffffffffffff1673ffffffffffffffffffffffffffffffffffffffff168152602001806020018381526020018281038252858582818152602001925080828437820191505095505050505050600060405180830381600087803b1580156124dc57600080fd5b505af11580156124f0573d6000803e3d6000fd5b50505050505050565b6000600160009054906101000a900473ffffffffffffffffffffffffffffffffffffffff1673ffffffffffffffffffffffffffffffffffffffff1663ebd4aab23385856040518463ffffffff167c0100000000000000000000000000000000000000000000000000000000028152600401808473ffffffffffffffffffffffffffffffffffffffff1673ffffffffffffffffffffffffffffffffffffffff1681526020018060200182810382528484828181526020019250808284378201915050945050505050600060405180830381600087803b1580156125da57600080fd5b505af11580156125ee573d6000803e3d6000fd5b5050505092915050565b6000600160009054906101000a900473ffffffffffffffffffffffffffffffffffffffff1673ffffffffffffffffffffffffffffffffffffffff1663ebd4aab23385856040518463ffffffff167c0100000000000000000000000000000000000000000000000000000000028152600401808473ffffffffffffffffffffffffffffffffffffffff1673ffffffffffffffffffffffffffffffffffffffff1681526020018060200182810382528484828181526020019250808284378201915050945050505050600060405180830381600087803b1580156126d957600080fd5b505af11580156126ed573d6000803e3d6000fd5b50505050600160009054906101000a900473ffffffffffffffffffffffffffffffffffffffff1673ffffffffffffffffffffffffffffffffffffffff1663f81a3bc73387876040518463ffffffff167c0100000000000000000000000000000000000000000000000000000000028152600401808473ffffffffffffffffffffffffffffffffffffffff1673ffffffffffffffffffffffffffffffffffffffff1681526020018060200182810382528484828181526020019250808284378201915050945050505050600060405180830381600087803b1580156127d057600080fd5b505af11580156127e4573d6000803e3d6000fd5b5050505060019050949350505050565b6060600360009054906101000a900473ffffffffffffffffffffffffffffffffffffffff1673ffffffffffffffffffffffffffffffffffffffff166387529f0f836040518263ffffffff167c0100000000000000000000000000000000000000000000000000000000028152600401808273ffffffffffffffffffffffffffffffffffffffff1673ffffffffffffffffffffffffffffffffffffffff168152602001915050600060405180830381600087803b1580156128b357600080fd5b505af11580156128c7573d6000803e3d6000fd5b505050506040513d6000823e3d601f19601f8201168201806040525060208110156128f157600080fd5b81019080805164010000000081111561290957600080fd5b8281019050602081018481111561291f57600080fd5b815185600182028301116401000000008211171561293c57600080fd5b50509291905050509050919050565b600160009054906101000a900473ffffffffffffffffffffffffffffffffffffffff1673ffffffffffffffffffffffffffffffffffffffff166301e37e953433846040518463ffffffff167c0100000000000000000000000000000000000000000000000000000000028152600401808373ffffffffffffffffffffffffffffffffffffffff1673ffffffffffffffffffffffffffffffffffffffff168152602001828152602001925050506000604051808303818588803b158015612a1057600080fd5b505af1158015612a24573d6000803e3d6000fd5b505050505050565b6000600160009054906101000a900473ffffffffffffffffffffffffffffffffffffffff1673ffffffffffffffffffffffffffffffffffffffff166381947837338686866040518563ffffffff167c0100000000000000000000000000000000000000000000000000000000028152600401808573ffffffffffffffffffffffffffffffffffffffff1673ffffffffffffffffffffffffffffffffffffffff168152602001848152602001806020018281038252848482818152602001925080828437820191505095505050505050602060405180830381600087803b158015612b1557600080fd5b505af1158015612b29573d6000803e3d6000fd5b505050506040513d6020811015612b3f57600080fd5b810190808051906020019092919050505090509392505050565b6000600360009054906101000a900473ffffffffffffffffffffffffffffffffffffffff1673ffffffffffffffffffffffffffffffffffffffff1663817c8966836040518263ffffffff167c0100000000000000000000000000000000000000000000000000000000028152600401808273ffffffffffffffffffffffffffffffffffffffff1673ffffffffffffffffffffffffffffffffffffffff168152602001915050602060405180830381600087803b158015612c1857600080fd5b505af1158015612c2c573d6000803e3d6000fd5b505050506040513d6020811015612c4257600080fd5b81019080805190602001909291905050509050919050565b60008060009054906101000a900473ffffffffffffffffffffffffffffffffffffffff1673ffffffffffffffffffffffffffffffffffffffff163373ffffffffffffffffffffffffffffffffffffffff16141515612cb757600080fd5b81600260006101000a81548173ffffffffffffffffffffffffffffffffffffffff021916908373ffffffffffffffffffffffffffffffffffffffff16021790555060019050919050565b6000600460009054906101000a900473ffffffffffffffffffffffffffffffffffffffff1673ffffffffffffffffffffffffffffffffffffffff1663df80db4d836040518263ffffffff167c01000000000000000000000000000000000000000000000000000000000281526004018080602001828103825283818151815260200191508051906020019080838360005b83811015612dad578082015181840152602081019050612d92565b50505050905090810190601f168015612dda5780820380516001836020036101000a031916815260200191505b5092505050602060405180830381600087803b158015612df957600080fd5b505af1158015612e0d573d6000803e3d6000fd5b505050506040513d6020811015612e2357600080fd5b81019080805190602001909291905050509050919050565b600160009054906101000a900473ffffffffffffffffffffffffffffffffffffffff1673ffffffffffffffffffffffffffffffffffffffff166386ee3b30343385856040518563ffffffff167c0100000000000000000000000000000000000000000000000000000000028152600401808473ffffffffffffffffffffffffffffffffffffffff1673ffffffffffffffffffffffffffffffffffffffff16815260200180602001828103825284848281815260200192508082843782019150509450505050506000604051808303818588803b158015612f1a57600080fd5b505af1158015612f2e573d6000803e3d6000fd5b50505050505050565b600160009054906101000a900473ffffffffffffffffffffffffffffffffffffffff1673ffffffffffffffffffffffffffffffffffffffff1663a0c6c9ec34338686866040518663ffffffff167c0100000000000000000000000000000000000000000000000000000000028152600401808573ffffffffffffffffffffffffffffffffffffffff1673ffffffffffffffffffffffffffffffffffffffff1681526020018060200183815260200182810382528585828181526020019250808284378201915050955050505050506000604051808303818588803b15801561301e57600080fd5b505af1158015613032573d6000803e3d6000fd5b5050505050505050565b6000809054906101000a900473ffffffffffffffffffffffffffffffffffffffff1673ffffffffffffffffffffffffffffffffffffffff163373ffffffffffffffffffffffffffffffffffffffff1614151561309757600080fd5b600073ffffffffffffffffffffffffffffffffffffffff168173ffffffffffffffffffffffffffffffffffffffff16141515156130d357600080fd5b8073ffffffffffffffffffffffffffffffffffffffff166000809054906101000a900473ffffffffffffffffffffffffffffffffffffffff1673ffffffffffffffffffffffffffffffffffffffff167f8be0079c531659141344cd1fd0a4f28419497f9722a3daafe3b4186f6b6457e060405160405180910390a3806000806101000a81548173ffffffffffffffffffffffffffffffffffffffff021916908373ffffffffffffffffffffffffffffffffffffffff16021790555050565b6000600360009054906101000a900473ffffffffffffffffffffffffffffffffffffffff1673ffffffffffffffffffffffffffffffffffffffff1663d1bad09b836040518263ffffffff167c0100000000000000000000000000000000000000000000000000000000028152600401808273ffffffffffffffffffffffffffffffffffffffff1673ffffffffffffffffffffffffffffffffffffffff168152602001915050602060405180830381600087803b15801561325057600080fd5b505af1158015613264573d6000803e3d6000fd5b505050506040513d602081101561327a57600080fd5b81019080805190602001909291905050509050919050565b6060604051908101604052806003906020820280388339808201915050905050905600a165627a7a723058200a77da859943e0ec15355545b629734efaea992c31a80f4523eb7616f86c4f850029",
  "source": "pragma solidity ^0.4.23;\r\n\r\nimport \"./Ownable.sol\";\r\nimport \"./SafeMath.sol\";\r\nimport \"./logicContract.sol\";\r\nimport \"./bombCards.sol\";\r\n\r\ncontract Crysk is Ownable {\r\n\r\n    using SafeMath for uint;\r\n\r\n    logicContract logic;\r\n    bombCards bombCard;\r\n    playersContract players;\r\n    countriesContract countries;\r\n    marketplaceContract market;\r\n\r\n    constructor (address adr) public {\r\n        owner = adr;\r\n        logic = logicContract(0x0);\r\n        players = playersContract(0x0);\r\n        countries = countriesContract(0x0);\r\n        market = marketplaceContract(0x0);\r\n        bombCard = bombCards(0x0);\r\n    }\r\n\r\n    //Internal\r\n    function setLogicContract(address adr) onlyOwner external returns(bool) {\r\n        logic = logicContract(adr);\r\n        return true;\r\n    }\r\n\r\n    function setmarketplaceContract(address adr) onlyOwner external returns(bool) {\r\n        market = marketplaceContract(adr);\r\n        return true;\r\n    }\r\n\r\n    function setPlayerContract(address adr) onlyOwner external returns(bool) {\r\n        players = playersContract(adr);\r\n        return true;\r\n    }\r\n\r\n    function setCountryContract(address adr) onlyOwner external returns(bool) {\r\n        countries = countriesContract(adr);\r\n        return true;\r\n    }\r\n\r\n    function setBombCardContract(address adr) onlyOwner external returns (bool) {\r\n        bombCard = bombCards(adr);\r\n        return true;\r\n    }\r\n\r\n\r\n//--------------------Getters functions-----------------------------------------------// \r\n\r\n    //CARDS\r\n        //bombs\r\n    function getUsercards() external view returns(uint[3]) {\r\n        return bombCard.getUserCards(msg.sender);\r\n    }\r\n\r\n    function getCardPrice(uint index) external view returns(uint) {\r\n        return bombCard.getPrice(index);\r\n    }\r\n\r\n    //PLAYER\r\n    function getAvailableArmy(address adr) external view returns (uint) {\r\n        return players.getArmy(adr);\r\n    }\r\n\r\n    function getPlayerLvl(address adr) external view returns (uint) {\r\n        return players.getLevel(adr);\r\n    }\r\n\r\n    function getPlayerTeam(address adr) external view returns(string) {\r\n        return players.getTeam(adr);\r\n    }\r\n\r\n    function getPlayerNickname(address adr) external view returns(string) {\r\n        return players.getNickname(adr);\r\n    }\r\n\r\n    function getPlayerUpgrades(address adr) external view returns(uint) {\r\n        return players.getUpgrades(adr);\r\n    }\r\n\r\n    function getTotalOwned(address adr) external view returns(uint) {\r\n        return players.getTotalOwned(adr);\r\n    }\r\n\r\n    function getPlayerExpPts(address adr) external view returns (uint) {\r\n        return players.getExpPts(adr);\r\n    }\r\n\r\n    //COUNTRY\r\n    function itExists(string name) external view returns(bool) {\r\n        return countries.getExistence(name);\r\n    }   \r\n\r\n    function getPrice(string name) external view returns (uint) {\r\n        return countries.getPrice(name);\r\n    }\r\n\r\n    function getArmy(string name) external view returns (uint) {\r\n        return countries.getArmy(name);\r\n    }\r\n\r\n    function getOwner(string name) public view returns (address) {\r\n        return countries.getOwner(name);\r\n    }\r\n\r\n    function getLifePoints(string name) public view returns (uint) {\r\n        return countries.getLifePoints(name);\r\n    }\r\n\r\n    function getTimer(string name) public view returns (uint) {\r\n        return countries.getBlockLeft(name);\r\n    }\r\n\r\n    //LOGIC\r\n    function getArmyUnitPrice() external view returns (uint) {\r\n        return market.getArmyPrice();\r\n    }\r\n\r\n    function getLifePointUnitPrice() external view returns (uint) {\r\n        return market.getLifePointPrice();\r\n    }\r\n\r\n\r\n\r\n//--------------------State changing functions------------------------------------------//\r\n\r\n    //MARKETPLACE\r\n    function buyArmy(uint quantity) external payable {\r\n        logic.buyArmy.value(msg.value)(msg.sender, quantity);        \r\n    }\r\n\r\n    function buyLifePoints(string name, uint quantity) external payable {\r\n        logic.buyLifePoints.value(msg.value)(msg.sender, name, quantity);\r\n    }   \r\n    \r\n    function buyObject(string name) external payable {\r\n        logic.buyObject.value(msg.value)(msg.sender, name); \r\n    }\r\n\r\n    function buyBombCards(uint index) external payable {\r\n        logic.buyBombCard.value(msg.value)(msg.sender, index);\r\n    }\r\n\r\n    //PLAYER ACTIONS\r\n    function upgradeAttackDmg(address adr) external returns(uint) {\r\n        logic.upgradePower(adr, false);\r\n    }\r\n\r\n    function upgradeDefense(address adr) external returns(uint) {\r\n        logic.upgradePower(adr, true);\r\n    }\r\n\r\n    function addArmyInState(uint quantity, string name) external {\r\n        logic.addArmyInState(msg.sender, quantity, name);\r\n    }\r\n\r\n    function subArmyFromState(uint quantity, string name) external {\r\n        logic.subArmyFromState(msg.sender, quantity, name);\r\n    }\r\n    \r\n    function changeTeam(string name) external returns(bool) {\r\n        logic.changeTeam(msg.sender, name);\r\n    }\r\n\r\n    function changeNickname(string name) external returns(bool) {\r\n        logic.setNickName(msg.sender, name);\r\n    }\r\n\r\n    function signUp(string team, string nick) external returns(bool) {\r\n        logic.setNickName(msg.sender, nick);\r\n        logic.changeTeam(msg.sender, team);\r\n        return true;\r\n    }\r\n\r\n    //Attacks\r\n    function attack(string to, uint quantity) external {\r\n        logic.attack(msg.sender, to, quantity);\r\n    }\r\n\r\n    function applyBombCard(uint index, string name) external returns(bool) {\r\n        return logic.applyBombCard(msg.sender, index, name);\r\n    }\r\n\r\n}",
  "sourcePath": "C:\\Users\\mauri\\Desktop\\Crysk\\contracts\\Crysk.sol",
  "compiler": {
    "name": "solc",
    "version": "0.4.23+commit.124ca40d.Emscripten.clang"
  },
  "schemaVersion": "2.0.0",
  "updatedAt": "2018-09-21T15:36:34.859Z"
}