{
  "contractName": "marketplaceContract",
  "abi": [
    {
      "constant": true,
      "inputs": [],
      "name": "lifepointUnitPrice",
      "outputs": [
        {
          "name": "",
          "type": "uint256"
        }
      ],
      "payable": false,
      "stateMutability": "view",
      "type": "function"
    },
    {
      "constant": true,
      "inputs": [],
      "name": "contractBalance",
      "outputs": [
        {
          "name": "",
          "type": "uint256"
        }
      ],
      "payable": false,
      "stateMutability": "view",
      "type": "function"
    },
    {
      "constant": true,
      "inputs": [],
      "name": "owner",
      "outputs": [
        {
          "name": "",
          "type": "address"
        }
      ],
      "payable": false,
      "stateMutability": "view",
      "type": "function"
    },
    {
      "constant": true,
      "inputs": [],
      "name": "armyUnitPrice",
      "outputs": [
        {
          "name": "",
          "type": "uint256"
        }
      ],
      "payable": false,
      "stateMutability": "view",
      "type": "function"
    },
    {
      "constant": true,
      "inputs": [],
      "name": "basePrice",
      "outputs": [
        {
          "name": "",
          "type": "uint256"
        }
      ],
      "payable": false,
      "stateMutability": "view",
      "type": "function"
    },
    {
      "constant": true,
      "inputs": [],
      "name": "logicAdr",
      "outputs": [
        {
          "name": "",
          "type": "address"
        }
      ],
      "payable": false,
      "stateMutability": "view",
      "type": "function"
    },
    {
      "constant": false,
      "inputs": [
        {
          "name": "newOwner",
          "type": "address"
        }
      ],
      "name": "transferOwnership",
      "outputs": [],
      "payable": false,
      "stateMutability": "nonpayable",
      "type": "function"
    },
    {
      "inputs": [
        {
          "name": "adr",
          "type": "address"
        }
      ],
      "payable": false,
      "stateMutability": "nonpayable",
      "type": "constructor"
    },
    {
      "anonymous": false,
      "inputs": [
        {
          "indexed": false,
          "name": "adr",
          "type": "address"
        },
        {
          "indexed": false,
          "name": "name",
          "type": "string"
        },
        {
          "indexed": false,
          "name": "team",
          "type": "string"
        },
        {
          "indexed": false,
          "name": "victim",
          "type": "address"
        },
        {
          "indexed": false,
          "name": "nick",
          "type": "string"
        }
      ],
      "name": "buyEvent",
      "type": "event"
    },
    {
      "anonymous": false,
      "inputs": [
        {
          "indexed": true,
          "name": "previousOwner",
          "type": "address"
        },
        {
          "indexed": true,
          "name": "newOwner",
          "type": "address"
        }
      ],
      "name": "OwnershipTransferred",
      "type": "event"
    },
    {
      "constant": false,
      "inputs": [
        {
          "name": "adr",
          "type": "address"
        }
      ],
      "name": "setPlayersContract",
      "outputs": [
        {
          "name": "",
          "type": "bool"
        }
      ],
      "payable": false,
      "stateMutability": "nonpayable",
      "type": "function"
    },
    {
      "constant": false,
      "inputs": [
        {
          "name": "adr",
          "type": "address"
        }
      ],
      "name": "setCountriesContract",
      "outputs": [
        {
          "name": "",
          "type": "bool"
        }
      ],
      "payable": false,
      "stateMutability": "nonpayable",
      "type": "function"
    },
    {
      "constant": false,
      "inputs": [
        {
          "name": "adr",
          "type": "address"
        }
      ],
      "name": "setBombCardContract",
      "outputs": [
        {
          "name": "",
          "type": "bool"
        }
      ],
      "payable": false,
      "stateMutability": "nonpayable",
      "type": "function"
    },
    {
      "constant": false,
      "inputs": [
        {
          "name": "adr",
          "type": "address"
        }
      ],
      "name": "setLogicAddress",
      "outputs": [
        {
          "name": "",
          "type": "bool"
        }
      ],
      "payable": false,
      "stateMutability": "nonpayable",
      "type": "function"
    },
    {
      "constant": true,
      "inputs": [],
      "name": "getArmyPrice",
      "outputs": [
        {
          "name": "",
          "type": "uint256"
        }
      ],
      "payable": false,
      "stateMutability": "view",
      "type": "function"
    },
    {
      "constant": true,
      "inputs": [],
      "name": "getLifePointPrice",
      "outputs": [
        {
          "name": "",
          "type": "uint256"
        }
      ],
      "payable": false,
      "stateMutability": "view",
      "type": "function"
    },
    {
      "constant": false,
      "inputs": [
        {
          "name": "adr",
          "type": "address"
        },
        {
          "name": "quantity",
          "type": "uint256"
        },
        {
          "name": "value",
          "type": "uint256"
        }
      ],
      "name": "buyArmy",
      "outputs": [],
      "payable": true,
      "stateMutability": "payable",
      "type": "function"
    },
    {
      "constant": false,
      "inputs": [
        {
          "name": "adr",
          "type": "address"
        },
        {
          "name": "to",
          "type": "string"
        },
        {
          "name": "quantity",
          "type": "uint256"
        }
      ],
      "name": "buyLifePoints",
      "outputs": [],
      "payable": true,
      "stateMutability": "payable",
      "type": "function"
    },
    {
      "constant": false,
      "inputs": [
        {
          "name": "adr",
          "type": "address"
        },
        {
          "name": "name",
          "type": "string"
        }
      ],
      "name": "buyObject",
      "outputs": [],
      "payable": true,
      "stateMutability": "payable",
      "type": "function"
    },
    {
      "constant": false,
      "inputs": [
        {
          "name": "adr",
          "type": "address"
        },
        {
          "name": "index",
          "type": "uint256"
        }
      ],
      "name": "buyBombCard",
      "outputs": [],
      "payable": true,
      "stateMutability": "payable",
      "type": "function"
    },
    {
      "constant": false,
      "inputs": [
        {
          "name": "value",
          "type": "uint256"
        }
      ],
      "name": "withdraw",
      "outputs": [
        {
          "name": "",
          "type": "bool"
        }
      ],
      "payable": false,
      "stateMutability": "nonpayable",
      "type": "function"
    }
  ],
  "bytecode": "0x608060405234801561001057600080fd5b50604051602080612b3283398101806040528101908080519060200190929190505050336000806101000a81548173ffffffffffffffffffffffffffffffffffffffff021916908373ffffffffffffffffffffffffffffffffffffffff16021790555066470de4df8200006001819055506000600260006101000a81548173ffffffffffffffffffffffffffffffffffffffff021916908373ffffffffffffffffffffffffffffffffffffffff160217905550655af3107a4000600381905550655af3107a4000600481905550806000806101000a81548173ffffffffffffffffffffffffffffffffffffffff021916908373ffffffffffffffffffffffffffffffffffffffff16021790555060006005819055506000600660006101000a81548173ffffffffffffffffffffffffffffffffffffffff021916908373ffffffffffffffffffffffffffffffffffffffff1602179055506000600760006101000a81548173ffffffffffffffffffffffffffffffffffffffff021916908373ffffffffffffffffffffffffffffffffffffffff1602179055506000600860006101000a81548173ffffffffffffffffffffffffffffffffffffffff021916908373ffffffffffffffffffffffffffffffffffffffff16021790555050612937806101fb6000396000f3006080604052600436106100fc576000357c0100000000000000000000000000000000000000000000000000000000900463ffffffff16806301e37e95146101015780630a21f1311461014157806310aa52761461016c5780632e1a7d4d146101c7578063403fd8571461020c5780635566d1cf1461025657806364c9ed4914610281578063829bd3ad146102ac57806386ee3b30146103075780638b7afe2e146103555780638da5cb5b14610380578063a0c6c9ec146103d7578063b1cfc05c1461042f578063c7876ea41461045a578063ccaa07da14610485578063d15bf7ef146104dc578063f2fde38b14610537578063fdcfc3ef1461057a575b600080fd5b61013f600480360381019080803573ffffffffffffffffffffffffffffffffffffffff169060200190929190803590602001909291905050506105d5565b005b34801561014d57600080fd5b50610156610939565b6040518082815260200191505060405180910390f35b34801561017857600080fd5b506101ad600480360381019080803573ffffffffffffffffffffffffffffffffffffffff16906020019092919050505061093f565b604051808215151515815260200191505060405180910390f35b3480156101d357600080fd5b506101f2600480360381019080803590602001909291905050506109e6565b604051808215151515815260200191505060405180910390f35b610254600480360381019080803573ffffffffffffffffffffffffffffffffffffffff1690602001909291908035906020019092919080359060200190929190505050610abf565b005b34801561026257600080fd5b5061026b610e2e565b6040518082815260200191505060405180910390f35b34801561028d57600080fd5b50610296610e38565b6040518082815260200191505060405180910390f35b3480156102b857600080fd5b506102ed600480360381019080803573ffffffffffffffffffffffffffffffffffffffff169060200190929190505050610e42565b604051808215151515815260200191505060405180910390f35b610353600480360381019080803573ffffffffffffffffffffffffffffffffffffffff169060200190929190803590602001908201803590602001919091929391929390505050610ee9565b005b34801561036157600080fd5b5061036a611f20565b6040518082815260200191505060405180910390f35b34801561038c57600080fd5b50610395611f26565b604051808273ffffffffffffffffffffffffffffffffffffffff1673ffffffffffffffffffffffffffffffffffffffff16815260200191505060405180910390f35b61042d600480360381019080803573ffffffffffffffffffffffffffffffffffffffff16906020019092919080359060200190820180359060200191909192939192939080359060200190929190505050611f4b565b005b34801561043b57600080fd5b5061044461210e565b6040518082815260200191505060405180910390f35b34801561046657600080fd5b5061046f612114565b6040518082815260200191505060405180910390f35b34801561049157600080fd5b5061049a61211a565b604051808273ffffffffffffffffffffffffffffffffffffffff1673ffffffffffffffffffffffffffffffffffffffff16815260200191505060405180910390f35b3480156104e857600080fd5b5061051d600480360381019080803573ffffffffffffffffffffffffffffffffffffffff169060200190929190505050612140565b604051808215151515815260200191505060405180910390f35b34801561054357600080fd5b50610578600480360381019080803573ffffffffffffffffffffffffffffffffffffffff1690602001909291905050506121e7565b005b34801561058657600080fd5b506105bb600480360381019080803573ffffffffffffffffffffffffffffffffffffffff16906020019092919050505061233c565b604051808215151515815260200191505060405180910390f35b6000600260009054906101000a900473ffffffffffffffffffffffffffffffffffffffff1673ffffffffffffffffffffffffffffffffffffffff163373ffffffffffffffffffffffffffffffffffffffff1614151561063357600080fd5b600660009054906101000a900473ffffffffffffffffffffffffffffffffffffffff1673ffffffffffffffffffffffffffffffffffffffff16630b2d447c846040518263ffffffff167c0100000000000000000000000000000000000000000000000000000000028152600401808273ffffffffffffffffffffffffffffffffffffffff1673ffffffffffffffffffffffffffffffffffffffff168152602001915050602060405180830381600087803b1580156106f057600080fd5b505af1158015610704573d6000803e3d6000fd5b505050506040513d602081101561071a57600080fd5b8101908080519060200190929190505050905060001515811515141561083457600660009054906101000a900473ffffffffffffffffffffffffffffffffffffffff1673ffffffffffffffffffffffffffffffffffffffff16631228b9dd846040518263ffffffff167c0100000000000000000000000000000000000000000000000000000000028152600401808273ffffffffffffffffffffffffffffffffffffffff1673ffffffffffffffffffffffffffffffffffffffff168152602001915050602060405180830381600087803b1580156107f757600080fd5b505af115801561080b573d6000803e3d6000fd5b505050506040513d602081101561082157600080fd5b8101908080519060200190929190505050505b600860009054906101000a900473ffffffffffffffffffffffffffffffffffffffff1673ffffffffffffffffffffffffffffffffffffffff16635b445df78385346040518463ffffffff167c0100000000000000000000000000000000000000000000000000000000028152600401808481526020018373ffffffffffffffffffffffffffffffffffffffff1673ffffffffffffffffffffffffffffffffffffffff1681526020018281526020019350505050600060405180830381600087803b15801561090157600080fd5b505af1158015610915573d6000803e3d6000fd5b5050505061092e346005546123e390919063ffffffff16565b600581905550505050565b60045481565b60003373ffffffffffffffffffffffffffffffffffffffff166000809054906101000a900473ffffffffffffffffffffffffffffffffffffffff1673ffffffffffffffffffffffffffffffffffffffff1614151561099c57600080fd5b81600660006101000a81548173ffffffffffffffffffffffffffffffffffffffff021916908373ffffffffffffffffffffffffffffffffffffffff16021790555060019050919050565b60003373ffffffffffffffffffffffffffffffffffffffff166000809054906101000a900473ffffffffffffffffffffffffffffffffffffffff1673ffffffffffffffffffffffffffffffffffffffff16141515610a4357600080fd5b8160055410151515610a5457600080fd5b610a69826005546123ff90919063ffffffff16565b6005819055503373ffffffffffffffffffffffffffffffffffffffff166108fc839081150290604051600060405180830381858888f19350505050158015610ab5573d6000803e3d6000fd5b5060019050919050565b6000600260009054906101000a900473ffffffffffffffffffffffffffffffffffffffff1673ffffffffffffffffffffffffffffffffffffffff163373ffffffffffffffffffffffffffffffffffffffff16141515610b1d57600080fd5b600660009054906101000a900473ffffffffffffffffffffffffffffffffffffffff1673ffffffffffffffffffffffffffffffffffffffff16630b2d447c856040518263ffffffff167c0100000000000000000000000000000000000000000000000000000000028152600401808273ffffffffffffffffffffffffffffffffffffffff1673ffffffffffffffffffffffffffffffffffffffff168152602001915050602060405180830381600087803b158015610bda57600080fd5b505af1158015610bee573d6000803e3d6000fd5b505050506040513d6020811015610c0457600080fd5b81019080805190602001909291905050509050600015158115151415610d1e57600660009054906101000a900473ffffffffffffffffffffffffffffffffffffffff1673ffffffffffffffffffffffffffffffffffffffff16631228b9dd856040518263ffffffff167c0100000000000000000000000000000000000000000000000000000000028152600401808273ffffffffffffffffffffffffffffffffffffffff1673ffffffffffffffffffffffffffffffffffffffff168152602001915050602060405180830381600087803b158015610ce157600080fd5b505af1158015610cf5573d6000803e3d6000fd5b505050506040513d6020811015610d0b57600080fd5b8101908080519060200190929190505050505b610d33346005546123e390919063ffffffff16565b600581905550600660009054906101000a900473ffffffffffffffffffffffffffffffffffffffff1673ffffffffffffffffffffffffffffffffffffffff1663e52c65d88585600354866040518563ffffffff167c0100000000000000000000000000000000000000000000000000000000028152600401808573ffffffffffffffffffffffffffffffffffffffff1673ffffffffffffffffffffffffffffffffffffffff168152602001848152602001838152602001828152602001945050505050600060405180830381600087803b158015610e1057600080fd5b505af1158015610e24573d6000803e3d6000fd5b5050505050505050565b6000600454905090565b6000600354905090565b60003373ffffffffffffffffffffffffffffffffffffffff166000809054906101000a900473ffffffffffffffffffffffffffffffffffffffff1673ffffffffffffffffffffffffffffffffffffffff16141515610e9f57600080fd5b81600760006101000a81548173ffffffffffffffffffffffffffffffffffffffff021916908373ffffffffffffffffffffffffffffffffffffffff16021790555060019050919050565b600080600260009054906101000a900473ffffffffffffffffffffffffffffffffffffffff1673ffffffffffffffffffffffffffffffffffffffff163373ffffffffffffffffffffffffffffffffffffffff16141515610f4857600080fd5b600660009054906101000a900473ffffffffffffffffffffffffffffffffffffffff1673ffffffffffffffffffffffffffffffffffffffff16630b2d447c866040518263ffffffff167c0100000000000000000000000000000000000000000000000000000000028152600401808273ffffffffffffffffffffffffffffffffffffffff1673ffffffffffffffffffffffffffffffffffffffff168152602001915050602060405180830381600087803b15801561100557600080fd5b505af1158015611019573d6000803e3d6000fd5b505050506040513d602081101561102f57600080fd5b8101908080519060200190929190505050915060001515821515141561114957600660009054906101000a900473ffffffffffffffffffffffffffffffffffffffff1673ffffffffffffffffffffffffffffffffffffffff16631228b9dd866040518263ffffffff167c0100000000000000000000000000000000000000000000000000000000028152600401808273ffffffffffffffffffffffffffffffffffffffff1673ffffffffffffffffffffffffffffffffffffffff168152602001915050602060405180830381600087803b15801561110c57600080fd5b505af1158015611120573d6000803e3d6000fd5b505050506040513d602081101561113657600080fd5b8101908080519060200190929190505050505b600760009054906101000a900473ffffffffffffffffffffffffffffffffffffffff1673ffffffffffffffffffffffffffffffffffffffff16634aaf4a1285856040518363ffffffff167c01000000000000000000000000000000000000000000000000000000000281526004018080602001828103825284848281815260200192508082843782019150509350505050602060405180830381600087803b1580156111f457600080fd5b505af1158015611208573d6000803e3d6000fd5b505050506040513d602081101561121e57600080fd5b8101908080519060200190929190505050905060011515600760009054906101000a900473ffffffffffffffffffffffffffffffffffffffff1673ffffffffffffffffffffffffffffffffffffffff1663e71fa10586866040518363ffffffff167c01000000000000000000000000000000000000000000000000000000000281526004018080602001828103825284848281815260200192508082843782019150509350505050602060405180830381600087803b1580156112e057600080fd5b505af11580156112f4573d6000803e3d6000fd5b505050506040513d602081101561130a57600080fd5b8101908080519060200190929190505050151514156115c457600760009054906101000a900473ffffffffffffffffffffffffffffffffffffffff1673ffffffffffffffffffffffffffffffffffffffff1663ba787ab18585346040518463ffffffff167c0100000000000000000000000000000000000000000000000000000000028152600401808060200183815260200182810382528585828181526020019250808284378201915050945050505050600060405180830381600087803b1580156113d657600080fd5b505af11580156113ea573d6000803e3d6000fd5b50505050611429611418600a61140a60643461241890919063ffffffff16565b61242e90919063ffffffff16565b6005546123e390919063ffffffff16565b600581905550600760009054906101000a900473ffffffffffffffffffffffffffffffffffffffff1673ffffffffffffffffffffffffffffffffffffffff16634aaf4a1285856040518363ffffffff167c01000000000000000000000000000000000000000000000000000000000281526004018080602001828103825284848281815260200192508082843782019150509350505050602060405180830381600087803b1580156114da57600080fd5b505af11580156114ee573d6000803e3d6000fd5b505050506040513d602081101561150457600080fd5b810190808051906020019092919050505073ffffffffffffffffffffffffffffffffffffffff166108fc611555605a61154760643461241890919063ffffffff16565b61242e90919063ffffffff16565b9081150290604051600060405180830381858888f19350505050158015611580573d6000803e3d6000fd5b506115bf8585858080601f016020809104026020016040519081016040528093929190818152602001838380828437820191505050505050600a612466565b6119f3565b6116d0600660009054906101000a900473ffffffffffffffffffffffffffffffffffffffff1673ffffffffffffffffffffffffffffffffffffffff1663817c8966876040518263ffffffff167c0100000000000000000000000000000000000000000000000000000000028152600401808273ffffffffffffffffffffffffffffffffffffffff1673ffffffffffffffffffffffffffffffffffffffff168152602001915050602060405180830381600087803b15801561168457600080fd5b505af1158015611698573d6000803e3d6000fd5b505050506040513d60208110156116ae57600080fd5b810190808051906020019092919050505060015461241890919063ffffffff16565b34101515156116de57600080fd5b6116f3346005546123e390919063ffffffff16565b600581905550600760009054906101000a900473ffffffffffffffffffffffffffffffffffffffff1673ffffffffffffffffffffffffffffffffffffffff1663c33c25178686866040518463ffffffff167c0100000000000000000000000000000000000000000000000000000000028152600401808473ffffffffffffffffffffffffffffffffffffffff1673ffffffffffffffffffffffffffffffffffffffff1681526020018060200182810382528484828181526020019250808284378201915050945050505050602060405180830381600087803b1580156117d857600080fd5b505af11580156117ec573d6000803e3d6000fd5b505050506040513d602081101561180257600080fd5b810190808051906020019092919050505050600660009054906101000a900473ffffffffffffffffffffffffffffffffffffffff1673ffffffffffffffffffffffffffffffffffffffff1663df84092a866000806040518463ffffffff167c0100000000000000000000000000000000000000000000000000000000028152600401808473ffffffffffffffffffffffffffffffffffffffff1673ffffffffffffffffffffffffffffffffffffffff1681526020018373ffffffffffffffffffffffffffffffffffffffff168152602001821515151581526020019350505050600060405180830381600087803b1580156118fc57600080fd5b505af1158015611910573d6000803e3d6000fd5b50505050600660009054906101000a900473ffffffffffffffffffffffffffffffffffffffff1673ffffffffffffffffffffffffffffffffffffffff1663a188697986600a6040518363ffffffff167c0100000000000000000000000000000000000000000000000000000000028152600401808373ffffffffffffffffffffffffffffffffffffffff1673ffffffffffffffffffffffffffffffffffffffff16815260200182815260200192505050600060405180830381600087803b1580156119da57600080fd5b505af11580156119ee573d6000803e3d6000fd5b505050505b600660009054906101000a900473ffffffffffffffffffffffffffffffffffffffff1673ffffffffffffffffffffffffffffffffffffffff16633174b8c1866040518263ffffffff167c0100000000000000000000000000000000000000000000000000000000028152600401808273ffffffffffffffffffffffffffffffffffffffff1673ffffffffffffffffffffffffffffffffffffffff168152602001915050602060405180830381600087803b158015611ab057600080fd5b505af1158015611ac4573d6000803e3d6000fd5b505050506040513d6020811015611ada57600080fd5b8101908080519060200190929190505050507fc9db59074e648c15646153fb6f8a67de139b78150360b927db599fbc79101e33858585600660009054906101000a900473ffffffffffffffffffffffffffffffffffffffff1673ffffffffffffffffffffffffffffffffffffffff166387529f0f8a6040518263ffffffff167c0100000000000000000000000000000000000000000000000000000000028152600401808273ffffffffffffffffffffffffffffffffffffffff1673ffffffffffffffffffffffffffffffffffffffff168152602001915050600060405180830381600087803b158015611bcd57600080fd5b505af1158015611be1573d6000803e3d6000fd5b505050506040513d6000823e3d601f19601f820116820180604052506020811015611c0b57600080fd5b810190808051640100000000811115611c2357600080fd5b82810190506020810184811115611c3957600080fd5b8151856001820283011164010000000082111715611c5657600080fd5b505092919050505085600660009054906101000a900473ffffffffffffffffffffffffffffffffffffffff1673ffffffffffffffffffffffffffffffffffffffff1663adaccd748c6040518263ffffffff167c0100000000000000000000000000000000000000000000000000000000028152600401808273ffffffffffffffffffffffffffffffffffffffff1673ffffffffffffffffffffffffffffffffffffffff168152602001915050600060405180830381600087803b158015611d1c57600080fd5b505af1158015611d30573d6000803e3d6000fd5b505050506040513d6000823e3d601f19601f820116820180604052506020811015611d5a57600080fd5b810190808051640100000000811115611d7257600080fd5b82810190506020810184811115611d8857600080fd5b8151856001820283011164010000000082111715611da557600080fd5b5050929190505050604051808773ffffffffffffffffffffffffffffffffffffffff1673ffffffffffffffffffffffffffffffffffffffff16815260200180602001806020018573ffffffffffffffffffffffffffffffffffffffff1673ffffffffffffffffffffffffffffffffffffffff1681526020018060200184810384528989828181526020019250808284378201915050848103835287818151815260200191508051906020019080838360005b83811015611e72578082015181840152602081019050611e57565b50505050905090810190601f168015611e9f5780820380516001836020036101000a031916815260200191505b50848103825285818151815260200191508051906020019080838360005b83811015611ed8578082015181840152602081019050611ebd565b50505050905090810190601f168015611f055780820380516001836020036101000a031916815260200191505b50995050505050505050505060405180910390a15050505050565b60055481565b6000809054906101000a900473ffffffffffffffffffffffffffffffffffffffff1681565b600260009054906101000a900473ffffffffffffffffffffffffffffffffffffffff1673ffffffffffffffffffffffffffffffffffffffff163373ffffffffffffffffffffffffffffffffffffffff16141515611fa757600080fd5b611fbc8160045461242e90919063ffffffff16565b3410151515611fca57600080fd5b611fdf346005546123e390919063ffffffff16565b600581905550600760009054906101000a900473ffffffffffffffffffffffffffffffffffffffff1673ffffffffffffffffffffffffffffffffffffffff16635f84bccd848487856040518563ffffffff167c010000000000000000000000000000000000000000000000000000000002815260040180806020018473ffffffffffffffffffffffffffffffffffffffff1673ffffffffffffffffffffffffffffffffffffffff1681526020018381526020018281038252868682818152602001925080828437820191505095505050505050602060405180830381600087803b1580156120cc57600080fd5b505af11580156120e0573d6000803e3d6000fd5b505050506040513d60208110156120f657600080fd5b81019080805190602001909291905050505050505050565b60035481565b60015481565b600260009054906101000a900473ffffffffffffffffffffffffffffffffffffffff1681565b60003373ffffffffffffffffffffffffffffffffffffffff166000809054906101000a900473ffffffffffffffffffffffffffffffffffffffff1673ffffffffffffffffffffffffffffffffffffffff1614151561219d57600080fd5b81600860006101000a81548173ffffffffffffffffffffffffffffffffffffffff021916908373ffffffffffffffffffffffffffffffffffffffff16021790555060019050919050565b3373ffffffffffffffffffffffffffffffffffffffff166000809054906101000a900473ffffffffffffffffffffffffffffffffffffffff1673ffffffffffffffffffffffffffffffffffffffff1614151561224257600080fd5b600073ffffffffffffffffffffffffffffffffffffffff168173ffffffffffffffffffffffffffffffffffffffff161415151561227e57600080fd5b8073ffffffffffffffffffffffffffffffffffffffff166000809054906101000a900473ffffffffffffffffffffffffffffffffffffffff1673ffffffffffffffffffffffffffffffffffffffff167f8be0079c531659141344cd1fd0a4f28419497f9722a3daafe3b4186f6b6457e060405160405180910390a3806000806101000a81548173ffffffffffffffffffffffffffffffffffffffff021916908373ffffffffffffffffffffffffffffffffffffffff16021790555050565b60003373ffffffffffffffffffffffffffffffffffffffff166000809054906101000a900473ffffffffffffffffffffffffffffffffffffffff1673ffffffffffffffffffffffffffffffffffffffff1614151561239957600080fd5b81600260006101000a81548173ffffffffffffffffffffffffffffffffffffffff021916908373ffffffffffffffffffffffffffffffffffffffff16021790555060019050919050565b600081830190508281101515156123f657fe5b80905092915050565b600082821115151561240d57fe5b818303905092915050565b6000818381151561242557fe5b04905092915050565b6000808314156124415760009050612460565b818302905081838281151561245257fe5b0414151561245c57fe5b8090505b92915050565b6000600760009054906101000a900473ffffffffffffffffffffffffffffffffffffffff1673ffffffffffffffffffffffffffffffffffffffff16634aaf4a12846040518263ffffffff167c01000000000000000000000000000000000000000000000000000000000281526004018080602001828103825283818151815260200191508051906020019080838360005b838110156125125780820151818401526020810190506124f7565b50505050905090810190601f16801561253f5780820380516001836020036101000a031916815260200191505b5092505050602060405180830381600087803b15801561255e57600080fd5b505af1158015612572573d6000803e3d6000fd5b505050506040513d602081101561258857600080fd5b81019080805190602001909291905050509050600660009054906101000a900473ffffffffffffffffffffffffffffffffffffffff1673ffffffffffffffffffffffffffffffffffffffff1663df84092a858360016040518463ffffffff167c0100000000000000000000000000000000000000000000000000000000028152600401808473ffffffffffffffffffffffffffffffffffffffff1673ffffffffffffffffffffffffffffffffffffffff1681526020018373ffffffffffffffffffffffffffffffffffffffff1673ffffffffffffffffffffffffffffffffffffffff168152602001821515151581526020019350505050600060405180830381600087803b15801561269957600080fd5b505af11580156126ad573d6000803e3d6000fd5b50505050600660009054906101000a900473ffffffffffffffffffffffffffffffffffffffff1673ffffffffffffffffffffffffffffffffffffffff1663a188697985846040518363ffffffff167c0100000000000000000000000000000000000000000000000000000000028152600401808373ffffffffffffffffffffffffffffffffffffffff1673ffffffffffffffffffffffffffffffffffffffff16815260200182815260200192505050600060405180830381600087803b15801561277657600080fd5b505af115801561278a573d6000803e3d6000fd5b50505050600760009054906101000a900473ffffffffffffffffffffffffffffffffffffffff1673ffffffffffffffffffffffffffffffffffffffff16634305fee984866000806040518563ffffffff167c010000000000000000000000000000000000000000000000000000000002815260040180806020018573ffffffffffffffffffffffffffffffffffffffff1673ffffffffffffffffffffffffffffffffffffffff168152602001848152602001838152602001828103825286818151815260200191508051906020019080838360005b8381101561287a57808201518184015260208101905061285f565b50505050905090810190601f1680156128a75780820380516001836020036101000a031916815260200191505b5095505050505050602060405180830381600087803b1580156128c957600080fd5b505af11580156128dd573d6000803e3d6000fd5b505050506040513d60208110156128f357600080fd5b810190808051906020019092919050505050505050505600a165627a7a72305820e33967967d37906f06c3e0e9b62ff80e143e6622c51ac98672095ac18a9695e00029",
  "source": "pragma solidity ^0.4.23;\n//pragma experimental ABIEncoderV2;\n\nimport \"./Ownable.sol\";\nimport \"./SafeMath.sol\";\nimport \"./playersContract.sol\";\nimport \"./countriesContract.sol\";\nimport \"./bombCards.sol\";\n\ncontract marketplaceContract is Ownable {\n\n    using SafeMath for uint;\n\n    uint public basePrice;\n    address public logicAdr;\n    uint public armyUnitPrice;\n    uint public lifepointUnitPrice;\n    uint public contractBalance;\n\n    playersContract players;\n    countriesContract countries;\n    bombCards bombCard;\n\n    //Colored logs event\n    event buyEvent(address adr, string name, string team, address victim, string nick);\n\n    // BE SURE TO PUT THE RIGHT OWNER BEFORE PRODUCTION\n    modifier onlyOwner {\n        require(owner == msg.sender);\n        _;\n    }\n\n    modifier onlyLogic {\n        require(msg.sender == logicAdr);\n        _;\n    }\n\n    constructor(address adr) public {\n        basePrice = 20000000000000000; //0.02eth\n        logicAdr = 0x0;\n        armyUnitPrice = 100000000000000;\n        lifepointUnitPrice = 100000000000000;\n        owner = adr;//msg.sender;//0xBB9CAE0071054774d47B3299EFb1E6e3ef1153d1;\n        contractBalance = 0;\n        players = playersContract(0x0);\n        countries = countriesContract(0x0);\n        bombCard = bombCards(0x0);\n    }\n\n//-------------------Init Functions ----------------------------------------------------//\n\n    function setPlayersContract(address adr) onlyOwner external returns (bool) {\n        players = playersContract(adr);\n        return true;\n    }\n\n    function setCountriesContract(address adr) onlyOwner external returns (bool) {\n        countries = countriesContract(adr);\n        return true;\n    }\n\n    function setBombCardContract(address adr) onlyOwner external returns (bool) {\n        bombCard = bombCards(adr);\n        return true;\n    }\n\n    function setLogicAddress(address adr) onlyOwner external returns (bool) {\n        logicAdr = adr;\n        return true;\n    }\n\n\n//--------------------- Getters -------------------------------------------------------//\n\n    function getArmyPrice() external view returns (uint) {\n        return armyUnitPrice;\n    }\n\n    function getLifePointPrice() external view returns (uint) {\n        return lifepointUnitPrice;\n    }\n\n//-------------------Internal functions-------------------------------------------------//\n\n    function updatePlayerInfos(address adr, string to, uint expts) internal {\n        address oldOwner = countries.getOwner(to);\n        players.updatePossessions(adr, oldOwner, true);\n        players.addExpPts(adr, expts);\n        countries.changeOwnership(to,adr,0,0);\n    }\n\n//--------------------State changing functions------------------------------------------//\n\n    //MARKETPLACE\n    function buyArmy(address adr, uint quantity,uint value) onlyLogic external payable {\n        bool existence = players.getExistence(adr);\n        if (existence == false) {\n            players.newPlayer(adr); \n        }\n        contractBalance = contractBalance.add(msg.value);\n        players.buyArmy(adr,quantity,armyUnitPrice, value);\n    }\n\n    function buyLifePoints(address adr, string to, uint quantity) onlyLogic external payable {\n        require(msg.value >= lifepointUnitPrice.mul(quantity));\n        contractBalance = contractBalance.add(msg.value);\n        countries.addLifePoints(to,adr,quantity);\n    }\n\n    function buyObject(address adr, string name) onlyLogic external payable {\n        bool existence = players.getExistence(adr);\n        if (existence == false) {\n            players.newPlayer(adr); \n        }\n        address victim = countries.getOwner(name);\n        if ( countries.getExistence(name) == true ) {\n            countries.buyObject(name, msg.value);\n            contractBalance = contractBalance.add(msg.value.div(100).mul(10));\n            countries.getOwner(name).transfer(msg.value.div(100).mul(90));\n            updatePlayerInfos(adr,name,10);\n        } else {\n            require(msg.value >= basePrice.div(players.getLevel(adr)));\n            contractBalance = contractBalance.add(msg.value);\n            countries.newObject(adr,name);\n            players.updatePossessions(adr,0x0,false);\n            players.addExpPts(adr, 10);\n        }\n        players.checkLevelExp(adr);\n        emit buyEvent(adr, name, players.getTeam(adr), victim, players.getNickname(adr));\n    }\n\n    function buyBombCard(address adr, uint index) onlyLogic external payable {\n        bool existence = players.getExistence(adr);\n        if (existence == false) {\n            players.newPlayer(adr); \n        }\n        bombCard.buyCard(index,adr,msg.value);\n        contractBalance = contractBalance.add(msg.value);\n    }\n\n    //ONLY DEV\n    function withdraw(uint value) external onlyOwner returns(bool) {\n        require(contractBalance >= value);\n        contractBalance = contractBalance.sub(value);\n        msg.sender.transfer(value);\n        return true;\n    }\n    \n}",
  "sourcePath": "C:\\Users\\mauri\\Desktop\\Crysk\\contracts\\marketplaceContract.sol",
  "compiler": {
    "name": "solc",
    "version": "0.4.23+commit.124ca40d.Emscripten.clang"
  },
  "schemaVersion": "2.0.0",
  "updatedAt": "2018-09-21T15:36:34.982Z"
}